:020000040800F2
:1000000088070020F9010008F72B0008D125000817
:10001000F32B00081D2100085F33000800000000DA
:10002000000000000000000000000000952D000806
:10003000C5210008000000007D2C0008A92E000842
:10004000130200081302000813020008130200083C
:10005000130200081302000813020008130200082C
:10006000130200081302000813020008130200081C
:10007000130200081302000813020008130200080C
:1000800013020008130200081302000813020008FC
:1000900013020008130200081302000813020008EC
:1000A00013020008130200081302000813020008DC
:1000B00013020008C52F00081302000813020008ED
:1000C00013020008130200081302000813020008BC
:1000D000130200083D310008130200081302000853
:1000E000130200081302000813020008130200089C
:1000F000130200081302000813020008130200088C
:10010000130200081302000813020008130200087B
:10011000130200081302000813020008130200086B
:10012000130200081302000813020008130200085B
:1001300000F002F800F050F80AA090E8000C8244A9
:100140008344AAF10107DA4501D100F045F8AFF286
:10015000090EBAE80F0013F0010F18BFFB1A43F0A5
:1001600001031847E85D0000085E0000103A24BF54
:1001700078C878C1FAD8520724BF30C830C144BF0C
:1001800004680C607047000000230024002500264E
:10019000103A28BF78C1FBD8520728BF30C148BFEA
:1001A0000B607047662905F06D82642900F052806B
:1001B000002070471FB500F053FC04000020002110
:1001C00004F00CFA401C60600020002104F0F0F9FB
:1001D000E0601FBD10B510BD00F0D2FD1146FFF765
:1001E000E9FF03F06BFD01F07BF803B4FFF7F2FFCA
:1001F00003BC03F069FC0000094880470948004738
:10020000FEE7FEE7FEE7FEE7FEE7FEE7FEE7FEE7C6
:10021000FEE7FEE704480549054A064B7047000023
:10022000AD2E000831010008880100208807002059
:100230008803002088030020704700000FB40449A1
:1002400010B503AA029800F063FB10BC5DF814FB24
:10025000180000202DE9F041064600241068752999
:10026000314616A510D0AFF30080002802DA4042D4
:1002700013A507E031688A0701D512A502E04907F6
:1002800004D511A5012401E0AFF3008000210A226A
:1002900006F1240709E0B0FBF2FCB0FBF2F302FB2D
:1002A0001C00303078541846491C0028F3D12346EE
:1002B0002A463046BDE8F04100F0C1B80000000019
:1002C0002D0000002B000000200000002DE9F04769
:1002D0004FF0000A89460446C0F820A02046E16895
:1002E0008847002876D0252806D0D4E901219047F8
:1002F000206A401C2062F1E7E1682046002588471B
:10030000C4F81CA006460027C4F818A02A2E09D05D
:10031000304603F0D2FB38B304EB8708303EC8F810
:10032000186019E059F8041B204604EB870291611C
:10033000E1688847012F064618D1E069002820DAD5
:1003400025F020051DE0D8F8180000EB800006EB32
:1003500040003038C8F818002046E1688847064653
:1003600003F0ABFB0028EED1012F0AD02E2E08D1CE
:100370002046E16888477F1C0646022F45F020058D
:10038000C4DBA069002803DA404245F00105A06102
:10039000E80701D025F01005B6B1A6F141001928F3
:1003A00002D8203645F400654A463146204625608D
:1003B0004D46FFF7F7FE58B1012806D0ED1D25F098
:1003C000070000F1080989E704E005F1040985E761
:1003D00030468AE7206ABDE8F08770B5064600F02F
:1003E0001FF80468054630460A22002100F0F4FA9E
:1003F0002C6070BD30B505460B462A4613F8014BFC
:1004000012F8010B08B1A042F8D01CB1002802D0AC
:100410006D1CF1E7284630BD704770477047704744
:10042000004870472801002010B5FFF7F9FF006869
:1004300010BD10B50446FFF7F3FF046010BD2DE9B1
:10044000F0470D4699469246044600F1240801689B
:10045000880604D5E06921F01001216000E0012048
:10046000A84201DD471B00E00027A1697A1902EBD1
:100470000900081AA0612078C00602D42046AFF314
:100480000080002608E0D4E901211AF80600904710
:10049000206A401C761C20624E45F4DB2078C006A2
:1004A0000AD52046AFF3008006E0D4E901213020D0
:1004B0009047206A401C2062381EA7F10107F4DC37
:1004C00007E0D4E9012118F805009047206A401C94
:1004D0002062281EA5F10105F3DC2046AFF3008061
:1004E0002078000602D50220BDE8F0870120FBE756
:1004F00070472DE9FF4F0C461E464FF0FF378BB07B
:10050000D2E90001DDF860800A908A46C1F30A55FD
:1005100005B93D46002108464FF00000BAF1000F32
:1005200000F4400005DA00EB80004FF4400101EADE
:1005300050004FEA9059B9F1010F00DDB9460A9811
:1005400050EA4A000ED044F61050A5F2FF3545435C
:100550002F14B8F1000F1ED07542291E1EDDC9F1FF
:1005600000021CE0B8F1010F4FF0000001D0302173
:1005700003E0F24305E02154401CB042FBDB30466F
:100580000022002121540B99C1F80880C1E9002004
:100590000FB0BDE8F08FBD1B6D1CDEE74A4600DAE8
:1005A000694206A800F076FB06AB93E8070003ABB0
:1005B00083E8070050460A9901F019F98DE8070011
:1005C000A0F500501F3800900398002D0ADD42F27C
:1005D0001F014A460844002303A90390684601F01E
:1005E000C5FB09E0A0F500504A461F38002303A9C7
:1005F0000390684601F0E4FB8DE807000004000C5E
:1006000003D04FF0FF30410800E01046B8F1000F72
:1006100003D00022009215461EE0751E05D400F09E
:1006200023FA303262556D1EF9D5B34601220843D4
:1006300002D000227F1C04E02078302801D1002263
:100640007F1E002A099784D01DE0112D07DA00F0E3
:100650000BFA303262556D1C50EA0102F5D10843A5
:1006600002D00098C8B10EE00021681E05E0235CAE
:10067000625C63542254401E491C8142F7DBAB4646
:10068000A81B401E0990002004F80B000B98099A43
:10069000C0F80880C0E9002B7AE711264FF0000867
:1006A00057E72DE9F04F88460446D21D22F0070196
:1006B00091B0D1E90001CDE90A0102F052FE0246F3
:1006C0000B98C00F01D02D2007E02068810701D5CD
:1006D0002B2002E0202101EAC000032A099001D06A
:1006E000072A05DB03464146204600F023FA0BE1CA
:1006F0002078800601D5E06900E00620B8F1650F9A
:10070000814606D0B8F1660F18D0B8F1670F70D1E6
:1007100031E00020B9F1110F009001DB112301E05D
:1007200009F101030AAA01A90CA8FFF7E2FEDDE91D
:100730000C70002609F10105834647E001204B4675
:1007400000904FF000470AAA01A90CA8FFF7D1FEBC
:10075000DDE90DB00C995D46002610B909F10100E4
:100760000D18B9EB050003D4C0F1FF3609F10105FE
:10077000A5EB09002BE0B9F1010F01DA4FF00109F7
:100780000020B9F1110F0090484601DD112300E06F
:1007900003460AAA01A90CA8FFF7ABFEDDE90C701D
:1007A0004D4600268346207800070AD4AB4500DA80
:1007B0005D4601A8012D04DD411911F8011C302905
:1007C00007D04F4502DA17F1040F04DA0120824600
:1007D0000FE06D1EEEE7002F02DCED1B3E4403E050
:1007E000781CA84200DD7D1CB81B00F1010A4FF007
:1007F00000472078000703D4AA4501DB4FF0FF3AF9
:100800000021B7F1004F0DF143088DF8431024D0BB
:1008100002202B23002F01DA7F422D230A21021E02
:10082000A0F1010000DC5FB197FBF1FC97FBF1F256
:1008300001FB1C7C17460CF1300C08F801CDEEE7EB
:10084000A8F1010003702188090501D5452100E0C8
:100850006521A0F1010800F8011C09980FA9A1EB7E
:100860000807FF1D00B10120411901EBEA70A169E1
:100870003844081A401EA0612078C00602D42046E1
:10088000AFF30080099828B1D4E901219047206A8C
:10089000401C20622078C00622D52046AFF300809D
:1008A0001EE0002E04DBB34502DD01A8805D00E000
:1008B0003020D4E901219047206A401C2062761C38
:1008C000AAF101005FEA000A0AD100F0C9F8C06885
:1008D0000168405CD4E901219047206A401C2062F5
:1008E000281EA5F10105DCDC07E0D4E9012118F898
:1008F000010B9047206A401C2062381EA7F10107B7
:10090000F3DC2046AFF30080032011B041E6000085
:10091000074B70B50D467B4400F0F9F804462846B5
:1009200000F02AFA10B14FF0FF3070BD204670BDC4
:10093000BB3200000FB4002300B589B00CA90091B0
:100940000B99CB60214B7B440693214B7B4407934F
:1009500004236FF00042CDE901321E4A7A446B460F
:1009600008920246002004F0EFFE09B05DF814FB87
:1009700070B506464FF0FF3015460C46324686B03D
:100980000091CDE9010169460020049004A8FFF719
:10099000D1FF02460498211825B108B1084600E0AD
:1009A00020462860049800280DD0002A02DD009817
:1009B000884208D03246081B69460094CDE90104FC
:1009C00004A8FFF7B7FF06B070BD00006B0200007F
:1009D00083020000930100002DE9F04791460F4685
:1009E00080460446002614F8015B2DB100F030F873
:1009F0000068405DC007F6D12B2D02D02D2D18D0F8
:100A0000641E4A463946204600F0F4F827B139689A
:100A1000A14201D1C7F800804FF0020471050BD547
:100A20004042002803DDFFF7FBFC0460A007BDE89F
:100A3000F08746F48066E4E70028F8DAFFF7F0FC78
:100A400004606FF00040F2E7004870472801002082
:100A500010B500F005F8001D10BD00BF813B00007F
:100A6000004870474801002030B5B0F10A024FEA53
:100A7000900E71F100034EEA817EB0EB0E0061EB47
:100A800091014FEA101E4EEA017E10EB0E0041EB81
:100A900011114FEA102E4EEA016E10EB0E0041EBE1
:100AA00011214FEA104E4EEA014E10EB0E0041EBC1
:100AB0001141401841F100014FEAD00040EA417075
:100AC0004FEAD10110EB80054FEA810444EA9074AB
:100AD00044EB01046D1944EB0404521BA3414FF095
:100AE000000348BF0A3200D530BD401C41F100016F
:100AF00030BD10B50446FFF7ABFF0068005D00F0A5
:100B0000010010BD01694A1C02610878704700B5F8
:100B10008FB0CDE901310021059105497944CDE936
:100B2000031011466846FFF7D1FB0FB000BD00006F
:100B3000E5FFFFFF2DE9F0411F460446032601684B
:100B4000072A01F4006004DB08B116A505E016A52C
:100B500003E008B115A500E015A521F01000206004
:100B6000A069C01EA0610FB1401EA0612046AFF376
:100B700000804FB1D4E9012138469047206A401CDB
:100B80002062C01C206206E0206AFAE7D4E9012155
:100B900015F8010B9047761EF8D22046AFF300807F
:100BA000BDE8F0814E414E006E616E00494E460038
:100BB000696E6600426842B1016811F8013B23B1D9
:100BC000521EC0E90012184670470121C160881EFC
:100BD000704742685AB1C368016843B983688B4261
:100BE00005D0491E521CC0E90012002070474FF08A
:100BF000FF3070472DE9F05F824615468B4600278F
:100C00000AF10104B9460078302801D09DB113E003
:100C100014F8010B0127782803D0582801D045B1DA
:100C20000AE00DB1102D07D1002714F8010B102593
:100C300002E0082500E00A250026B0460EE005FB8C
:100C4000080005FB06F101271FFA80F801EB1046AA
:100C5000B6F5803F00D3B94614F8010B294600F0E1
:100C6000B4F80028EBDABBF1000F05D00FB1641E19
:100C700000E05446CBF80040B9F1000F06D0FFF772
:100C8000CFFB02210160C81EBDE8F09F48EA064084
:100C9000FAE700002DE9F047814616468AB035484C
:100CA00078440DC88DE80D0032487844801C03ACB0
:100CB0000DC884E80D0041F69B300844372190FBB5
:100CC000F1F290FBF1F5A5F1800501FB12041B3C4C
:100CD00002D56442012000E00020DFF898A08046A1
:100CE0000027FA44AAF1BE0A0EE0E0070AD0324615
:100CF000684607EB470101230AEB810101F060F828
:100D00008DE8070064107F1C002CEED1194F7F4442
:100D1000AE3F19E0E80715D007EB04100DF1180AF3
:100D200090E80E008AE80E00C068F04201D19819E0
:100D300008903246012306A903A801F041F803AB4D
:100D400083E807006D10641C002DE3D14FF0010310
:100D500032466946B8F1000F03A802D001F006F848
:100D600001E001F02DF8C9E90001C9F808200AB036
:100D7000BDE8F08790520000007B00F080007047D3
:100D80007546FFF761FEAE4605006946534620F002
:100D90000700854618B020B5FFF73CFABDE82040B3
:100DA0004FF000064FF000074FF000084FF0000B27
:100DB00021F00701AC46ACE8C009ACE8C009ACE8DA
:100DC000C009ACE8C0098D4670473A2800D23038D7
:100DD00020F02002412A01D3A2F13700884201D33A
:100DE0004FF0FF30704700002DE9FF4F06468BB0F3
:100DF0000878FF2806D0491C2D2805D000244FF084
:100E0000000908E000200CE00124F8E709EB890361
:100E1000491C00EB43090878FF28F7D114B1C9F148
:100E200000008146107800252C46AA4629462D2828
:100E300001D02B2804D1521C2D2813D0002082462B
:100E40008B461078FF280FD04FF0000C0A21521C5F
:100E5000A5FB017804FB018105FB0C11C5194BEBC7
:100E60000104EEE70120EAE7002108464FF0000008
:100E7000BAF1000F02D000EB80004008C0F38157A8
:100E8000012F01DD4FF0FF370E9955EA040009EB01
:100E900001080BD04FF0020918F5FA7F16DA4FEA75
:100EA000CA70002F706008DD012007E04FEACA70A9
:100EB000C6E900B00FB0BDE8F08F00203060FFF74A
:100EC000AFFAC0F800901821084616E0B8F5FA7F8E
:100ED00018DD002F02DAF748784401E0F64878443C
:100EE000D0E90010C6E9001040EACA707060FFF750
:100EF00097FAC0F80090142108460FB0BDE8F04FF3
:100F000004F0BDBB002108464FF00000B8F100011D
:100F1000099002DAC7F1000200E03A4601DAC8F1AE
:100F2000000106A8FFF7B6FE06AB93E8070003AB87
:100F300083E8070044F23E005BEA04010090584653
:100F400004D144F21E012C465D460091210C090497
:100F5000014306D10099240444EA15442D041039B4
:100F6000009104F07F41014306D10099240244EA34
:100F700015642D020839009104F07041014306D137
:100F80000099240144EA15742D01091F009104F011
:100F90004041014306D10099A40044EA9574AD0094
:100FA000891E009104F00041084304D100986D1996
:100FB0006441401E00904FF001033A466846B8F184
:100FC000000FCDE9014503A902DD00F00EFF01E0AD
:100FD00000F0E1FEBAF1000F04460D4601D084F0A6
:100FE0000044002108464FF00000099940F2FF77C5
:100FF000484010F00C0F07D124F00040284303D0E4
:10100000C4F30A50B84212D1FFF70AFAC0F80090B0
:10101000C4F30A50B8420AD1A8487844D0E9001075
:10102000C6E9001004F000410843706042E7C6E9D9
:1010300000543FE72DE9FF4F1F464FF0000A4FF0E5
:10104000FF38454691B0D7E90146CDF83CA0FFF7FF
:1010500007FDC0680168405C1090B96912986D1C6A
:101060008847396A814688470028F6D1B9F1FF3FA1
:101070000AD0002E24F4D06411DDB9F12B0F08D072
:10108000B9F12D0F0BD102E0404615B013E744F43F
:101090008064B96912986D1C8847761E8146600588
:1010A00004A901D52D2000E02B20002E01F1010B19
:1010B0000DF130088DF810003FDDB9F1690F08D04F
:1010C000B9F1490F05D0B9F16E0F02D0B9F14E0F49
:1010D0001CD13B4601A8009580E85002DDE91212C0
:1010E0006FF0020004F034FBC11CCED10EE0B969F0
:1010F00012986D1C884781461398761E44F400743C
:1011000005600F98401C002E0F9016DDB9F1300FCE
:10111000EDD0B9F1780F02D0B9F1580F0DD10F9879
:1011200001280AD13B46CDE90054DDE91212001F27
:10113000029604F00BFBC11CA7D1109989453ED142
:1011400044F0800406E01399681CAAF1010A44F4F3
:1011500000740860B9696D1C1298761E88473028A3
:101160008146F0D02BE01099894505D1200603D4A3
:10117000761E44F0800418E0484602F09EFC08B356
:10118000761E0DF123018B4544F4007408D2A9F1B9
:1011900030000BF8010B200607D5AAF1010003E08F
:1011A000200602D40AF101008246A00502D5139957
:1011B000681C0860B96912986D1C88478146002E2A
:1011C000D1DC53E0002E51DDB9F1650F02D0B9F149
:1011D000450F4BD1A00549D5B9696D1C1298761EF3
:1011E00024F440748847002E81460CDD2B2804D05F
:1011F000B9F12D0F07D144F48074B96912986D1CB0
:101200008847761E8146E00501D52D2100E02B217F
:1012100008F8011BCDF8008021E0761E0DF13901A0
:10122000884544F400740CD2A9F1300010F0FF009E
:1012300088F8000002D10099884509D908F1010811
:1012400006E0E00501D51E4801E042F20F7082463B
:10125000B96912986D1C8847814613980560002E65
:1012600004DD484602F029FC0028D6D1F96912981D
:101270008847FF2053468BF8000088F800000020C4
:101280000A900B9004AA0CA90AA8FFF7ADFDA005CF
:1012900002D46FF00100F8E614F0240F12D0E0073A
:1012A0001CD13868DDE90A12031D3B600068C0E903
:1012B000001213E0985000008A5000004E4F0000CA
:1012C000F1D8FFFF0AA9684602F086FBE00705D1C6
:1012D0003868009A011D3960006802602846D4E62B
:1012E00010B50446AFF300802046BDE81040FEF77D
:1012F0007CBF00004FF0013C50F8042B51F8043B38
:101300009A4221D1A2EB0C03934313EACC1317D1D9
:1013100050F8042B51F8043B9A4215D1A2EB0C0370
:10132000934313EACC130BD150F8042B51F8043B30
:101330009A4209D1A2EB0C03934313EACC13DBD0FE
:101340004FF00000704700BFD01A01BAB1FA81F126
:1013500001F0180122FA01F0CB40C1F12001DBB20B
:10136000C0B2C01A2CFA01F3D11A914311EAC31189
:10137000E6D170472DE9FF4F1F464FF03C0987B07B
:101380004FF00042DDE9141001F10108DDF858A02A
:1013900002EA40500390002005908346054604462B
:1013A0000490B969461E08988847AAF1010A02907C
:1013B000BAF1000F3BDD02982E2815D01021FFF75F
:1013C00004FD00282EDB4FF0010B0599014317D0D7
:1013D000B9F1000F0BDB4A46C11700F0F5F90543E0
:1013E0000C43A9F1040905E0012004900BE008B1C9
:1013F00045F0010501200590049820B9361D02E052
:10140000049800B1361FB969089808F101088847A7
:10141000BBF1000FAAF1010A0290C9D00999C1F8E5
:101420000080C5E70298702808D0502806D0F969D6
:1014300008988847BBF1000F14D04FE000200290BD
:101440000120BBF1000F049009D0B969089808F198
:1014500001088847AAF10109B9F1000F07DCF96911
:10146000089888476FF001000BB0BDE8F08F2B287B
:1014700004D02D280CD14FF0FF300490B9690898A2
:1014800008F101088847A9F10109B9F1000FE6DD6B
:10149000411CE4D00A21FFF798FC0028DFDB029909
:1014A00008F1010801EB810100EB41000290B969EC
:1014B000089888470A21FFF788FC099AA9F10109D1
:1014C000B9F1000FC2F8008001DD0028E7DAF96900
:1014D000089888470499029800FB016655EA0400C1
:1014E00004D004F04041090002D006E0039898E0DF
:1014F000A40044EA9574AD00B61E04F00041080053
:1015000002D16D196441761E159810F0240F03D096
:101510004FF00B095C4803E04FF028096FF07D00A5
:101520008246564507DAAAEB06018944B9F1410F14
:1015300001DD4FF0410901200021A9F1010200F075
:1015400043F9024628400B462140084301D00121BF
:1015500000E00021501E029143F1FF31284021405C
:10156000084301D0012000E000200299834651EA9F
:101570000B014FD0002108464FF00000039900F402
:10158000400039B100EB80004FF4400100EBD07017
:1015900001EA60008015012802DD4FF0FF3000E015
:1015A00013D0401C36D0029860B3BBF1000F0CD1B1
:1015B0004A460120002100F007F928402140084355
:1015C00001D0012000E00020E0B101204A460021C6
:1015D00000F0FAF8034640190A4661412D1A8C4181
:1015E00011D3B9F1400F09DD159810F0240F02D086
:1015F000AAF1340603E0AAF1170600E0761C0025E4
:101600004FF0004406E05B1E42F1FF3220EA030582
:1016100021EA0204CAF10100B04206DA1B4903982C
:1016200008430190002000900EE0039AC4F3D321F8
:10163000E80A0A43164940EA44500A433146CDE9D4
:101640000002684602F02EFA159810F0240F0BD015
:101650001598C00715D13868DDE90012031D3B60FD
:101660000068C0E900120CE002A8694602F0B4F973
:101670001598C00705D13868029A011D39600068C5
:1016800002604046F0E6000002FCFFFF0000F07F31
:101690000000F03F2DE9FF4F92461D4685B04FF008
:1016A0000041DDE9124BDDE914727F1E01EA4B5067
:1016B000414940F0FF4940EA0108002122F02000A2
:1016C0004928049102D04E2828D04CE03BA00126A6
:1016D00007C88DE80700A9690698641C88477F1E23
:1016E000014606D41DF8060018B121F02001814200
:1016F0000BD0E96906988847032E34D0082E32D0E3
:101700006FF0010009B0BDE8F08F761C032E01D008
:10171000082EE0D1601CCAF80000DCE7A969069831
:10172000641C88477F1E2AD420F02000412826D13F
:10173000A9690698641C88477F1E20D420F02000E9
:101740004E281CD1A9690698641C88477F1E48F45E
:10175000002849F48009CAF8004001D4282806D09E
:10176000E969069888475FEACB7012D022E0A96940
:101770000698641C88477F1E01D4002803DAE969B3
:1017800006988847BCE72928F1D1641CCAF80040B4
:10179000E9E71BF0240F07D028680499031D2B608C
:1017A0000068C0E9001805E02868021D2A6000688A
:1017B000C0F800902046A5E70000F07F494E46495A
:1017C0004E49545900000000B2F120030AD5C2F17D
:1017D000200301FA02F120FA03F300FA02F041EAD1
:1017E0000301704700FA03F14FF0000070475FEA11
:1017F000400C08BF91F0000F4FEA8C234FEAC12242
:1018000043EA51514FEA1C5018BF00F5F0404FEA2F
:10181000300018BF41F000415FEA6C5C00F02980A5
:10182000BCF1FF3F08BF40F080407047130C06BF7B
:1018300012044FF0100C4FF0000C130E04BF1202F4
:101840000CF1080C130F04BF12010CF1040C930FE0
:1018500004BF92000CF1020CD30F04BF52000CF134
:10186000010C11464FF00002A0F11F00A0EB0C008C
:10187000704711F0004F08BF704731F000413FF44E
:10188000D5AF0B0C06BF09044FF0100C4FF0000C45
:101890000B0E04BF09020CF1080C0B0F04BF090169
:1018A0000CF1040C8B0F04BF89000CF1020CCB0F60
:1018B00004BF49000CF1010CCCF12003A0EB0C009B
:1018C00022FA03F302FA0CF241EA030100F10100EB
:1018D000704720F07F4C80EA030023F07F47ACEB99
:1018E000070303F57C5300F0004003F1FF032DE9EB
:1018F00080494FEA154B09B44FEA144325EA0B4ED1
:1019000024EA03480FF2042606EB132749083E7821
:101910005FEA320203FB0667C7F5000707FB06F61E
:101920004FEA54374FEAD64606F1020607FB066C2B
:10193000CCF1005C4FEA1C472CEA074C07FB06F48D
:101940000CFB06F504EB15464FEA961634BF002053
:101950004FF000404FEAD13706FB07FC4FEA1C4C22
:101960000CFB0BF7D21B03FB0CF761EB07010CFB25
:101970000EF7B0EB074072EB17420CFB08F734BFD1
:10198000A2EB0742B2EB074261EB17414FEA0C446E
:101990004FEA910706FB07FC4FEA1C4C0CFB0BF7C8
:1019A000B0EBC74072EB573203FB0CF734BFA2EB2E
:1019B000C742B2EBC74261EB57310CFB0EF7B0EBFD
:1019C000C70072EB57720CFB08F734BFA2EBC702DB
:1019D000B2EBC70261EB5771039F4FEA816141EAA5
:1019E000921104EBCC044FEAD1374FEA826206FB36
:1019F00007FC42EA90124FEA80604FEA1C4C0CFB55
:101A00000BF7D21B03FB0CF761EB07010CFB0EF786
:101A1000B0EB074072EB17420CFB08F734BFA2EBA8
:101A20000742B2EB074261EB17414FEA8C554FEA90
:101A3000910704EB9C2406FB07FC4FEA1C4C0CFBB3
:101A40000BF7B0EBC74072EB573203FB0CF734BF18
:101A5000A2EBC742B2EBC74261EB57310CFB0EF76A
:101A6000B0EBC70072EB57720CFB08F734BFA2EB68
:101A7000C702B2EBC70261EB577115EB4C254FEA79
:101A8000816141EA92114FEA82624FEAD13742EA1C
:101A9000901206FB07FC44F100044FEA80604FEA15
:101AA0001C4C0CFB0BF7D21B03FB0CF761EB070183
:101AB0000CFB0EF7B0EB074072EB17420CFB08F77C
:101AC00034BFA2EB0742B2EB074261EB174115EBC3
:101AD0001C154FEA813141EA92414FEA823242EAD3
:101AE00090424FEA80304FEA0C7644F1000448EA15
:101AF00003434EEA0B484FF0000EB2EB080C71EBBB
:101B0000030724BF624639464EEB0E0E4FF0000B22
:101B10000018524149414BEB0B0BB2EB080C71EB37
:101B200003077BF1000B24BF624639464EEB0E0ED5
:101B30004FF0000B0018524149414BEB0B0BB2EB3D
:101B4000080C71EB03077BF1000B24BF624639469A
:101B50004EEB0E0E51EA020718BF46F0010616EBD7
:101B60000E7655F1000254F1000103D5BDE889015C
:101B7000BDE80088BDE88901BDE80048B6195241BA
:101B800041EB0101A3F10103704780807F7E7D7CE2
:101B90007B7A7978777676757473727171706F6EFF
:101BA0006E6D6C6C6B6A6A696868676666656464AA
:101BB000636362616160605F5F5E5E5D5D5C5C5B34
:101BC0005B5A5A59595858575756565555555454A3
:101BD000535352525251515050504F4F4F4E4E4D01
:101BE0004D4D4C4C4C4B4B4B4A4A4A49494948484D
:101BF000484747474746464645454544444444438D
:101C000043434342424242414141000046EA0646C4
:101C1000A3F570534FEA164646EA42564FEAD222DF
:101C200042EA415210B54FEAD121A3F1010300F07D
:101C30002FF820F0004000F1020C00F0004701EB0B
:101C400000501146BCF5006F40EA070000D210BDFD
:101C5000BAF1000F0AD01CB503B44FF004004FF0E6
:101C600004014FF000000FBCBDE810404FF0000130
:101C7000BBF1010FB9BF04484FF0FF310348002109
:101C800040EA070010BD00BFFFFFEF7F0000F07FBC
:101C9000002B9C4630D477002BD01CB54FEA370779
:101CA00003B44FF010004FF01001BAF1000F06D04E
:101CB000BCF1000FDCBF40F0080040F008014FF01D
:101CC00000000FBCBDE810400BF1010BBBF1010F90
:101CD00008BF5FEA170722BF12F1010211F10101EB
:101CE0004FF0004143F1000300F0004043EA0000E0
:101CF0007047F9D35708D0E746EA064613F1400F7C
:101D00004FEA16461FDD13F1200FDFBF16430A46C8
:101D1000002120335B42BED0C3F1200746EA0646CD
:101D200002FA07F74FEA164646EA0706C3F120070C
:101D300022FA03F201FA07F721FA03F14FF0000348
:101D400042EA0702A7E746EA020646EA06464FEAE3
:101D5000164646EA0106BCBF46EA0646360C4FF078
:101D600000034FF000024FF0000194E72DE9804C92
:101D70009A46934670B491E8380007C831EA400C9F
:101D800048BF34EA430C03D5FFF7A3FDFFF780FFFC
:101D9000F0BCBDE8008C2DE9804C9A46934670B4A7
:101DA00091E8380007C831EA400C48BF34EA430CD8
:101DB00003D5FFF78EFDFFF729FFF0BCBDE8008CCF
:101DC0002DE9804C9A46934670B491E8380007C8D4
:101DD00010F0804F08BF13F0804F03D100F01AF8C5
:101DE000FFF756FFF0BCBDE8008C2DE9804C9A4609
:101DF000934670B491E8380007C810F0804F08BFD0
:101E000013F0804F03D100F005F8FFF7FFFEF0BCA0
:101E1000BDE8008C20F07F4780EA030023F07F4C70
:101E200007EB0C03A3F57C5300F00040A3F1FE0385
:101E300092F0000F00F0B38095F0000F00F0778073
:101E40002DE901494FEA11404FEA144621EA0048C2
:101E500000FB06FC24EA064708FB06F607FB08F829
:101E600000FB07F718EB06484CEB164C4FEA124BF9
:101E700018EB07484FEA15464CEB174022EA0B4E89
:101E80000BFB06FC25EA06470EFB06F607FB0EFEDB
:101E90000BFB07F71EEB064E4CEB164C4FF0000603
:101EA0001EEB074E4CEB174B18EB0B0840F10000F4
:101EB00018EB0E0B58EB000840F100008F1A4FF0A2
:101EC00000013CBFC943661B14BFB5EB040C0021E5
:101ED0003CBFC943F61B4FEA17444EEA8E0E27EA71
:101EE00004454FEA1C4704FB07622CEA074C05FB3C
:101EF00007F70CFB05F604FB0CFC16EB074642EB60
:101F0000174216EB0C4642EB1C421BEB060658EB45
:101F10000202414146EA9E0601D5BDE80189B61993
:101F2000524141EB0101A3F10103BDE801894FEAF0
:101F300014454FEA114724EA054621EA074C05FB00
:101F400007F406FB07F70CFB06F105FB0CFC11EB95
:101F5000074144EB17444FEA124711EB0C4144EBA5
:101F60001C4422EA074C05FB07F206FB07F70CFBB3
:101F700006F605FB0CFC16EB074642EB174216EB88
:101F80000C4642EB1C456A1854F1000148BF7047EB
:101F9000B619524141EB0101A3F10103704795F0DD
:101FA000000F37D04FEA11424FEA144721EA0246A8
:101FB00024EA074C02FB07F106FB07F70CFB06F4CB
:101FC00002FB0CFC14EB074441EB17414FEA1547A9
:101FD00014EB0C4441EB1C4125EA074C02FB07F5CE
:101FE00006FB07F70CFB06F602FB0CFC16EB07469C
:101FF00045EB174516EB0C4645EB1C42121951F107
:10200000000148BF7047B619524141EB0101A3F1ED
:10201000010370474FEA14454FEA114724EA054689
:1020200021EA074C05FB07F106FB07F70CFB06F25C
:102030004FF0000605FB0CFC12EB074241EB174189
:1020400012EB0C4251EB1C4148BF7047921841EB18
:102050000101A3F1010370472DE9F04307460C4647
:1020600015461E46DDE907892B48008842F26D417E
:10207000884227D1502000F094FD384600F0AAFD98
:10208000512000F08EFD284600F0A4FD522000F003
:1020900088FD204600F09EFD532000F082FD304672
:1020A00000F098FD202000F07CFD404600F092FDFD
:1020B000212000F076FD484600F08CFD222000F043
:1020C00070FD26E01448008842F27D41884220D10C
:1020D0002A2000F066FD381200F07CFDF8B200F016
:1020E00079FD281200F076FDE8B200F073FD2B2098
:1020F00000F057FD201200F06DFDE0B200F06AFD27
:10210000301200F067FDF0B200F064FD2C2000F00A
:1021100048FDBDE8F08300004800002000BFFEE756
:1021200008B50121102000F0BBFD1520ADF800001E
:1021300010208DF8030003208DF80200694608483E
:1021400000F041F80121064800F012F94FF4004078
:1021500000F010F84FF4521000F00CF808BD000029
:102160000010014010B5044644F4801000F002F85D
:1021700010BD000070B504460121114800F0F6F8CA
:10218000002516E004210E4800F0F2F804F40000E7
:1021900020B110210A4800F0EBF803E010210848B4
:1021A00000F0E4F80421064800F0E0F86400681C40
:1021B000C5B2182DE6DB0121014800F0D9F870BD49
:1021C0000010014070472DE9F0410246002500262D
:1021D000002000230024002791F803C00CF00F0515
:1021E00091F803C00CF0100CBCF1000F03D091F873
:1021F00002C04CEA050591F800C0BCF1000F31D0D7
:10220000146800202BE04FF0010C0CFA00F3B1F839
:1022100000C00CEA03069E4220D183004FF00F0C51
:102220000CFA03F7BC4305FA03FC4CEA040491F8EA
:1022300003C0BCF1280F06D14FF0010C0CFA00FCD2
:10224000C2F814C00AE091F803C0BCF1480F05D1F0
:102250004FF0010C0CFA00FCC2F810C0401C08281A
:10226000D1D31460B1F800C0BCF1FF0F34DD546865
:1022700000202EE000F1080C4FF0010808FA0CF3E2
:10228000B1F800C00CEA03069E4221D183004FF052
:102290000F0C0CFA03F7BC4305FA03FC4CEA0404E8
:1022A00091F803C0BCF1280F05D100F1080C08FA21
:1022B0000CF8C2F8148091F803C0BCF1480F07D1A4
:1022C00000F1080C4FF0010808FA0CF8C2F8108071
:1022D000401C0828CED35460BDE8F081F0B50A4612
:1022E000002300240021002500F00046B6F1004F35
:1022F00002D11D4EF16901E01B4E7168C0F3034528
:1023000083B200F44016B6F5401F08D121F0706189
:10231000154E766826F07066134F7E6012E000F46A
:102320008016B6F5801F06D1032606FA05F4A143F0
:1023300041F0706106E0460D360103FA06F6B1433E
:1023400041F0706122B1460D360103FA06F63143C1
:1023500000F00046B6F1004F02D1034EF16101E0FA
:10236000014E7160F0BD0000000001404161704706
:10237000016170477CB506460020009040F23F1393
:10238000EF2201460190FFF767FE00240AE00025D6
:1023900004E0304600F01EFC681CC5B2F02DF8DBEE
:1023A000601C84B2B4F5A07FF1DB7CBD2DE9FF4752
:1023B0000746884614469946DDF830A042F2107070
:1023C000B4FBF0F00A21B0FBF1F201FB12008DF832
:1023D00008004FF47A70B4FBF0F0B0FBF1F201FBAF
:1023E00012008DF809006420B4FBF0F0B0FBF1F2AC
:1023F00001FB12008DF80A000A20B4FBF0F0B0FBDC
:10240000F1F201FB12008DF80B000A20B4FBF0F191
:1024100000FB11408DF80C0042F21070B4FBF0F09C
:1024200008B1052517E04FF47A70B4FBF0F008B15D
:10243000042510E06420B4FBF0F008B103250AE0A5
:102440000A20B4FBF0F008B1022504E00CB101252C
:1024500001E004B90125002612E00020C5F10501C4
:10246000314402ABCDE900A0595C3031CAB207EB70
:10247000C601C8B24B46414600F006F8701CC6B211
:10248000AE42EADBBDE8FF872DE9FF4F83B004468B
:102490000D469246DDF840B0DFF8F080AAF120004A
:1024A00008EB0018BBF1010F38D0119848B905F1BD
:1024B0000F0083B2E21D29462046CDE90045FFF713
:1024C000CBFD119801280BD104F10F00CDE90005D7
:1024D000E81D83B204F10F0229462046FFF7BCFD38
:1024E000002718E0002610E098F80000C6F1070267
:1024F00001219140084018B1069800F06BFB02E002
:10250000584600F067FB701CC6B2082EECDB08F1E1
:102510000108781CC7B2102FE4DB34E0A146002785
:102520002FE0002627E02B46224629462046CDE90B
:102530000045FFF791FD98F80000C6F10702012160
:102540009140084060B1069800F044FB601CC4B2A2
:10255000A4EB090008280CD14C46681C85B208E0A1
:10256000601CC4B2A4EB0900082802D14C46681CC8
:1025700085B2701CC6B2082ED5DB08F10108781CA4
:10258000C7B2102FCDDB07B0BDE8F08F845700082D
:102590002DE9FC4706460F4614469846DDF828907C
:1025A000002510E0207880280DDA0020CDE9009089
:1025B000227806EBC501C8B243463946FFF764FFEF
:1025C000681CC5B2641C20780028EBD1BDE8FC87EC
:1025D00000BFFEE708B50121242000F061FB0C20BC
:1025E000ADF8000048208DF8030069460648FFF763
:1025F000EAFD0120ADF8000028208DF803006946AF
:102600000248FFF7E0FD08BD00140140000801404A
:1026100070B50446204600F0C4FA4FF088301349E4
:102620000860091D08604FF6FF7010490C31086002
:10263000012000F09FFC002000F086FC052001F046
:10264000A3FA012000F080FC08480830006885B239
:102650004FF0333005490860091D08604FF6FF70E0
:1026600002490C310860284670BD0000000C014092
:1026700008B50121042000F013FB0220ADF8000092
:1026800010208DF8030003208DF8020069460448ED
:10269000FFF799FD02210248FFF76AFE08BD00001E
:1026A0000008014008B50121084600F0F9FA0121AF
:1026B0001248FFF713FE01211C2000F0F1FA4FF63B
:1026C000FF70ADF8000010208DF8030003208DF896
:1026D000020069460A48FFF776FD4FF4E060ADF866
:1026E000000069460748FFF76EFD4FF40040ADF863
:1026F000000069460448FFF766FD08BD000230008F
:10270000000C0140001001400008014010B5FFF727
:10271000C9FF012000F0FAFB012000F015FC0120A8
:1027200000F03CFC052001F009FA002000F0EEFB6F
:10273000322001F003FA0121002000F041FA32209A
:1027400001F0FCF90020FFF763FFFE49088008460E
:10275000008849F22531884216D0FA480088C91C01
:10276000884211D0F748008849F23D3188420BD0A9
:10277000F448008849F22031884205D0F1480088A9
:1027800049F2383188427DD142F26D40ED490880EE
:102790004FF48071012000F013FA4FF4E061022041
:1027A00000F00EFA41F23001032000F009FA002196
:1027B000042000F005FA40F20221082000F000FA9F
:1027C0000021092000F0FCF900210A2000F0F8F9AE
:1027D00000210C2000F0F4F900210D2000F0F0F9A8
:1027E00000210F2000F0ECF90021102000F0E8F9A2
:1027F0000721112000F0E4F90021122000F0E0F997
:102800000021132000F0DCF90121072000F0D8F9A5
:10281000322001F093F941F29061102000F0D0F9DC
:1028200040F22721112000F0CBF9322001F086F987
:102830009D21122000F0C4F9322001F07FF94FF4FD
:10284000C851132000F0BCF9322001F077F925219E
:10285000292000F0B5F90D212B2000F0B1F932202C
:1028600001F06CF90021202000F0AAF900212120BC
:1028700000F0A6F9322001F061F90721302000F0C4
:102880009FF900E070E040F20331312000F098F948
:102890000321322000F094F940F20621352000F0A7
:1028A0008FF90821362000F08BF940F206413720DD
:1028B00000F086F94FF44171382000F081F90721CA
:1028C000392000F07DF940F201613C2000F078F9F8
:1028D00008213D2000F074F90021502000F070F92B
:1028E000EF21512000F06CF90021522000F068F92E
:1028F00040F23F11532000F063F94FF4274160206C
:1029000000F05EF90121612000F05AF900216A20EF
:1029100000F056F90021802000F052F900218120BA
:1029200000F04EF90021822000F04AF900218320B6
:1029300000F046F90021842000F042F900218520B2
:1029400000F03EF91021902000F03AF94FF4C061F8
:10295000922000F035F940F23311072000F030F9F1
:10296000222000F01EF91BE142F27D4075490880EB
:10297000CF2000F016F9002000F02CF9C12000F063
:1029800029F9302000F026F9ED2000F00AF9642042
:1029900000F020F9032000F01DF9122000F01AF9D0
:1029A000812000F017F9E82000F0FBF8852000F006
:1029B00011F9102000F00EF97A2000F00BF9CB206D
:1029C00000F0EFF8392000F005F92C2000F002F9B2
:1029D000002000F0FFF8342000F0FCF8022000F0A6
:1029E000F9F8F72000F0DDF8202000F0F3F8EA20F5
:1029F00000F0D7F8002000F0EDF8002000F0EAF831
:102A0000C02000F0CEF81B2000F0E4F8C12000F058
:102A1000C8F8012000F0DEF8C52000F0C2F8302030
:102A200000F0D8F8302000F0D5F8C72000F0B9F851
:102A3000B72000F0CFF8362000F0B3F8082000F0FF
:102A4000C9F83A2000F0ADF8552000F0C3F8B120E5
:102A500000F0A7F8002000F0BDF81A2000F0BAF846
:102A6000B62000F09EF80A2000F0B4F8A22000F092
:102A7000B1F8F22000F095F8002000F0ABF8262025
:102A800000F08FF8012000F0A5F8E02000F089F8B0
:102A90000F2000F09FF82A2000F09CF8282000F07A
:102AA00099F8082000F096F80E2000F093F808201E
:102AB00000F090F8542000F08DF8A92000F08AF87A
:102AC000432000F087F80A2000F084F80F2000F07F
:102AD00081F8002000F07EF8002000F07BF8002054
:102AE00000F078F8002000F075F8E12000F059F8C7
:102AF000002000F06FF8152000F06CF8172000F0AF
:102B000069F8072000F066F8112000F063F806204D
:102B100000F060F82B2000F05DF8562000F05AF825
:102B20003C2000F057F8052000F054F8102000F089
:102B300051F80F2000F04EF83F2000F04BF83F20F6
:102B400002E000004800002000F044F80F2000F0F0
:102B500041F82B2000F025F8002000F03BF8002081
:102B600000F038F8012000F035F83F2000F032F88E
:102B70002A2000F016F8002000F02CF8002000F0C9
:102B800029F8002000F026F8EF2000F023F81120AB
:102B900000F007F8782000F0D1FF292000F001F8BC
:102BA00010BD00B50346002000F0E4F9184600F01F
:102BB000C1F9002000F0F2F9012000F0EFF900BDAA
:102BC00030B505460C462846FFF7EBFF204600F0DF
:102BD00001F830BD00B50346012000F0CBF91846DE
:102BE00000F0A8F9002000F0D9F9012000F0D6F992
:102BF00000BD00BFFEE7704770B5002100230F2223
:102C0000C47804B3154C246804F4E064C4F5E064AB
:102C1000210AC1F10403CA40447804FA03F184781C
:102C20001440214309010E4C0678A155047804F0A4
:102C30001F050124AC4005786D11AD0005F1E025BC
:102C4000C5F8004109E0047804F01F050124AC40F8
:102C5000044D0678761145F8264070BD0CED00E075
:102C600000E400E080E100E002490143024A116013
:102C7000704700000000FA050CED00E0704700000E
:102C800029B1064AD2690243044BDA6104E0034ADF
:102C9000D2698243014BDA617047000000100240A4
:102CA00029B1064A92690243044B9A6104E0034A3F
:102CB00092698243014B9A61704700000010024004
:102CC00030B500210022002400232D4D6D6805F051
:102CD0000C0121B1042905D0082923D105E0294D93
:102CE000056022E0274D05601FE0254D6D6805F465
:102CF0007012234D6D6805F48034022505EB924275
:102D00001CB9214D554305600BE01D4D6D6805F460
:102D100000351DB11C4D5543056002E0194D55436A
:102D2000056002E0174D056000BF00BF144D6D68DF
:102D300005F0F0010909154D6B5C0568DD40456043
:102D40000F4D6D6805F4E061090A104D6B5C456834
:102D5000DD4085600A4D6D6805F46051C90A0B4D70
:102D60006B5C4568DD40C560054D6D6805F440410C
:102D7000890B074D6B5CC568B5FBF3F5056130BD8C
:102D80000010024000127A0000093D0034000020CB
:102D900044000020704710B500F002F810BD00009C
:102DA0000CB50020019000903348006840F480305A
:102DB0003149086000BF3048006800F400300090DE
:102DC0000198401C0190009818B90198B0F5A06FC7
:102DD000F1D12948006800F4003010B101200090C2
:102DE00001E0002000900098012843D123480068AA
:102DF00040F01000214908600846006820F00300F8
:102E000008600846006840F0020008601A48406800
:102E1000194948600846406848600846406840F4E0
:102E2000806048600846406820F47C10486008468E
:102E3000406840F4E81048600846006840F0807040
:102E4000086000BF0C48006800F000700028F9D04E
:102E50000948406820F00300074948600846406878
:102E600040F00200486000BF0348406800F00C00DA
:102E70000828F9D10CBD00000010024000200240DB
:102E8000042808D14FF0E021096941F004014FF016
:102E9000E022116107E04FF0E021096921F004010F
:102EA0004FF0E022116170477047000010B51348E1
:102EB000006840F001001149086008464068104968
:102EC00008400E494860084600680E4908400B4912
:102ED00008600846006820F48020086008464068C2
:102EE00020F4FE0048604FF41F008860FFF753FF96
:102EF0004FF000600449086010BD0000001002405F
:102F00000000FFF8FFFFF6FE08ED00E0012806D103
:102F10000749096941F48071054A116106E028B941
:102F20000349496941F48071014A516170470000C9
:102F3000001001404FF6FF71024A1160111F086036
:102F400070470000140C0140012806D108490968A7
:102F500041F40041064A116008E038B90449091DEE
:102F6000096841F40041024A121D116070470000D7
:102F700010080140012806D10749096941F4007190
:102F8000054A116106E028B90349496941F4007115
:102F9000014A51617047000000100140012806D12C
:102FA0000749096941F48061054A116106E028B9C1
:102FB0000349496941F48061014A51617047000049
:102FC0000010014010B50121044800F04BF818B181
:102FD0000121024800F034F810BD00000004004058
:102FE0007FB505460C4601210220FFF749FE00206F
:102FF000ADF80A006020ADF80600ADF80850ADF855
:10300000044001A90D4800F047F8012211460B4881
:1030100000F039F81D208DF8000001208DF8030024
:1030200000208DF8010003208DF802006846FFF7AC
:10303000E3FD0121014800F006F87FBD00040040D7
:10304000CA430282704721B1028842F00102028025
:1030500004E002884FF6FE731A4002807047014672
:10306000888C704730B50246002000230024158A62
:1030700005EA0103958905EA010413B10CB10120A9
:1030800000E0002030BD1AB183890B43838102E048
:1030900083898B4383817047002202881D4B9842AD
:1030A0000ED01D4B98420BD0B0F1804F08D01B4B77
:1030B000984205D01A4B984202D01A4B984204D13C
:1030C0004FF68F731A404B881A43174B984207D01C
:1030D000164B984204D04FF6FF431A40CB881A4350
:1030E00002808B8883850B8803850A4B98420BD01E
:1030F000094B984208D00E4B984205D00D4B984290
:1031000002D00D4B984201D10B7A038601238382B2
:1031100070470000002C01400034014000040040D2
:1031200000080040000C0040001000400014004067
:1031300000400140004401400048014010B540F209
:1031400025511D4800F04AF810B31B4800F002F961
:10315000C4B21A48008800F40040C8B91748008873
:1031600000F4804060B10A2C03D00020134908808D
:1031700020E01248008840F400401049088019E01F
:103180000D2C06D10D48008840F480400B49088082
:1031900010E00A480088C0F30D0009490C540748A4
:1031A0000088401C0549088008460088C72801DDC2
:1031B0000020088010BD0000003801401C000020E5
:1031C0006000002021B1828942F40052828104E033
:1031D00082894DF6FF731A408281704770B50246AE
:1031E000002400230025002040F66A16B14200D1D9
:1031F00000BFC1F3421501F01F03012606FA03F3D5
:10320000012D02D19689334006E0022D02D1168AA3
:10321000334001E0968A33400C12012606FA04F48A
:103220001688344013B10CB1012000E0002070BDBD
:10323000F0B50346002400260025002040F66A175A
:10324000B94200D100BF1846C1F3421401F01F0675
:10325000012707FA06F5012C01D10C3004E0022CFD
:1032600001D1103000E014301AB107682F43076015
:1032700002E00768AF430760F0BD00002DE9F047AA
:1032800086B005460E460024A24600BFA146002790
:10329000B08900B100BF2F462C8A4CF6FF70044065
:1032A000F08804432C82AC894EF6F3100440B088B9
:1032B00031890843718908430443AC81AC8A4FF6D5
:1032C000FF400440B0890443AC8201A8FFF7F8FC3A
:1032D0001F48874202D1DDF810A001E0DDF80CA004
:1032E000A88900F4004040B10AEBCA0000EB0A10C4
:1032F00031684900B0FBF1F807E00AEBCA0000EBC7
:103300000A1031688900B0FBF1F86420B8FBF0F0D6
:1033100004012009642101FB1089A88900F4004000
:1033200040B1322000EBC900B0FBF1F000F0070023
:10333000044308E0322000EB09106421B0FBF1F0F7
:1033400000F00F0004432C8106B0BDE8F0870000B8
:103350000038014001468888C0F30800704700BF6C
:10336000FEE7490050EAC12018BF04204A0D18BFEB
:1033700040F0010040F2FF72B2EB515F08BF40F035
:103380000200012808BF0520704700002DE9F74F13
:10339000144694B00021C4E902111599079121F057
:1033A0000045C9498D4206DC1599C4E9000117B0F2
:1033B0000020BDE8F08FC549DFF814A3A9423CDD29
:1033C0000799C44E0029C44FC44A1599534619DDC4
:1033D00001F072FD554506D0C14AC24B01F06CFDAB
:1033E000C4E900010AE04FF0D352BE4B01F064FD86
:1033F00032463B4601F060FDC4E9000117B00120F0
:10340000BDE8F08F01F032F9554506D0B44AB54B0E
:1034100001F02CF9C4E900010AE04FF0D352B14B9E
:1034200001F024F932463B4601F020F9C4E90001DD
:1034300017B04FF0FF30BDE8F08FAB49A9421599A6
:1034400078DB21F0004183468846A84AA84B01F06A
:10345000F3FB0022A74B01F009F901F057FB09909B
:1034600001F083FB06460F469C4A534601F0E4FBFD
:1034700043465A4601F014FD80468A46984A994BC5
:103480003046394601F0D8FB2A0D01250B92424601
:10349000534601F005FD032DC4E9000139D00B9816
:1034A000C1F30A51401A05EB45111139814230DA56
:1034B0009148C346784400EB0510CDF80CA00C9061
:1034C000D0E900233046394601F0B6FB02460B46F0
:1034D000049106905846039901F0EEFC80468A4616
:1034E00002460B465846039901F0E6FC049B069AF7
:1034F00001F0E2FC83460C9803913946D0E902239F
:10350000304601F099FB5A46039B01F0D5FC6D1C37
:10351000BDE707980028A2BF099817B0BDE8F08F53
:10352000616881F000416160099817B04042BDE8D0
:10353000F08FFFE784461598C1F31301C0F30A50DA
:10354000A0F2F5304FEA601800F01F06C6F1200027
:10355000139000200690079041F4801E05206D46D0
:1035600076B1664A08EB00017A4452F8213002EB4A
:103570008101B3404A68139922FA01F1194305E029
:103580005F4908EB0002794451F82210A1FB0E2795
:10359000A1FB0C131A449A4234BF0123002303EB0E
:1035A000070A05EB8003D3E901B70F448F4234BF0C
:1035B0000121002193448B4411B1934502D903E0CA
:1035C000934501D2012100E00021C3E901B7514434
:1035D00045F82010011EA0F10100C1DC0298059FF2
:1035E00000F10050800F12900298DDE90356800030
:1035F00001F0BBFA834628460D9101F0CDFA6FF039
:103600001D0202F073F8CDE90E01304601F0C4FA54
:103610006FF03D0202F06AF880468A46384601F0B3
:10362000BBFA6FF05D0202F061F80746424653466E
:10363000119101F01BF8DDE90E2301F017F85A464D
:103640000D9B01F013F800250E465A4628460D9BA7
:1036500001F032FCDDE90E2301F02EFC4246534618
:1036600001F02AFC3A46119B01F01AFCDFF898A001
:10367000244A534601F0E0FA07468846234A244B81
:103680003146284601F0D8FA3A46434600F0EEFFAC
:10369000074688464FF0A84253463146284601F077
:1036A000CBFA3A46434600F0E1FF159A12F0004F7C
:1036B00004D0129A81F0004152421292C4E90001F2
:1036C000129817B0BDE8F08FFB21E93F7CD902408A
:1036D000FB21F93F7370032E8A19A33B000040546D
:1036E0003163621A61B4D03DFB21394183C8C96D91
:1036F000305FE43F0000E03F102900008C2800000C
:103700006E280000182D4454FB21F93D3326A611E4
:10371000460B113C2DE9FF4D21F0004807460C46B1
:10372000B8F1795F08DA01F0F1F9002801BF002053
:10373000324904B0BDE8F08D3A462346104619469A
:1037400001F07AFA054602462D480E460B46062140
:10375000784400F05DF82A46334601F06DFADDE961
:10376000022382468B463846214601F065FA04461C
:103770000F4652465B462846314601F05DFA224626
:103780003B4601F099FB07468A464FF0FF32284638
:10379000314601F0ABFF1B4A90450ADA3A465346E0
:1037A00001F08AFB04B00022BDE8F04D134B01F09C
:1037B00077BB154A4245A8BFA8F500154FF0000495
:1037C000B8BF124D22462B4601F076FB06468846CE
:1037D00022462B460020094901F06EFB04460D46A7
:1037E0003A4653463046414601F066FB04B0224655
:1037F0002B46BDE8F04D01F053BB00000000F03F48
:10380000442600003333D33F0000E93F0000D23F9D
:103810002DE9F0414F1E00EBC7010446D1E900013C
:1038200015461E4637F006020DD02A46334601F0F3
:1038300003FA7F1E04EBC703D3E9002300F016FF51
:1038400037F00602F1D1022F25D0042F13D0062F16
:1038500018BFBDE8F0812A46334601F0EDF9D4E9FE
:103860000A2300F003FF2A46334601F0E5F9D4E9C4
:10387000082300F0FBFE2A46334601F0DDF9D4E9C7
:10388000062300F0F3FE2A46334601F0D5F9D4E9C9
:10389000042300F0EBFE2A46334601F0CDF9D4E9CB
:1038A000022300F0E3FE2A46334601F0C5F9D4E9CD
:1038B0000023BDE8F04100F0D9BE00002DE9FF4D26
:1038C000054621F0004084B00C46B0F1795F0BDA78
:1038D0002846FFF746FD042808BF00F075F8284683
:1038E00008B02146BDE8F08D2A460B46104601F08F
:1038F000A3F906460F462A46234601F09DF9804665
:1039000026488A4632463B4605217844FFF780FF29
:1039100083461098029160B3214A224B404651469B
:1039200001F08AF9CDE900015A4640465146029B12
:1039300001F082F982468846DDE906014FF0FF3248
:1039400001F0D4FE5246434601F0B6FA32463B46F9
:1039500001F072F9DDE9062301F0AEFADDE900239A
:1039600001F0AAFA08B02A462346BDE8F04D01F05E
:1039700097BA0B465A463046394601F05DF9084A77
:10398000084B00F073FE4246534601F055F908B06B
:103990002A462346BDE8F04D00F068BE82250000AF
:1039A000495555555555C5BF012201F09FBE00220E
:1039B00013461046114600F015BF40F201320020B8
:1039C0004FF0E04101F092BE024A0020110701F0E1
:1039D0008DBE000001FDFFFF10B50446D1E90001D6
:1039E00000F002F8206010BDF8B504460D466A46A6
:1039F00000F0FEF800987E30009000281EDC0022C7
:103A000013462046294601F045F817D0002140F61C
:103A100008004FF0000006462046294600F0F4FD5D
:103A2000044640F6080006EA00014FF0000034F0BA
:103A3000004004BF0220FCF7FCFC29E00098FF28AE
:103A400028DB002108464FF0000000F44006002269
:103A500013462046294601F0EDF98CBF00250125CB
:103A60000220FCF7E6FC4FF0FF4446B1002D0CBFEE
:103A70004FF400004FF48000B04218BF084C0421FE
:103A800008464FF00000002D04BF84F00040F8BD50
:103A90002046F8BD20462946BDE8F84000F0B4BDF8
:103AA000FFFF7F7F10B504460A46D4E9000319469C
:103AB00000F0CAF8C4E9000110BD30380A2801D26C
:103AC0000120704700207047014600BF704730B5A5
:103AD00083B00446FCF7A8FC05460020CDE90000B1
:103AE000024621466846FCF743FF2846FCF7A1FC46
:103AF000DDE9000103B030BD10B56FF00400FFF741
:103B0000BFF90A4800680A49B0FBF1F0094908709A
:103B10000846007800EB4001C1EBC0104FF6FF7182
:103B200001EAC0000449088010BD00000000002028
:103B300000127A0014000020160000200146114AED
:103B400012884A434FF0E0235A6100229A611A46D4
:103B5000126942F001021A6100BF4FF0E0221069C1
:103B600000F001021AB100F48032002AF5D04FF0C3
:103B7000E022126922F001024FF0E0231A610022D4
:103B80009A617047160000200146114A12784A4394
:103B90004FF0E0235A6100229A611A46126942F0FE
:103BA00001021A6100BF4FF0E022106900F001022B
:103BB0001AB100F48032002AF5D04FF0E0221269E9
:103BC00022F001024FF0E0231A6100229A6170474F
:103BD0001400002000BF054A128802F04002002AAB
:103BE000F9D0C2B2014B1B1D1A807047003801404A
:103BF00010B5144600222260114A21F0004393427E
:103C0000A8BF10BD53EA000208BF10BDB3F5801F66
:103C1000A8BF226807DA362201F068FD6FF035028E
:103C200021F000432260DFF81CC06FF31E510CEB43
:103C300023531A4441F0FF5141F00051226010BD5E
:103C40000000F07F02FCFFFF2DE9F04106460C4624
:103C500040F2FF75174635EA14502BD00022134668
:103C6000304600F017FF25D03A463046214601F095
:103C70003DFD06460C4635EA145010D0002213468E
:103C8000304600F007FF15D10220FCF7D2FBFFF70A
:103C90009BFE0A46214662F31E01BDE8F081022028
:103CA000FCF7C7FBFFF789FE0A46214662F31E01B7
:103CB000BDE8F08130462146BDE8F0810EB5002414
:103CC000002002908146FFF717FF4FF4E13000F02B
:103CD00093FA4FF4A060FEF7C7FFFEF77BFCFEF7F8
:103CE000C7FCFEF713FDFEF71BFA00F0D5FAC2E1A0
:103CF000E1A1E348FCF77EFB00285CD0E1480088A6
:103D000000F40040002856D0DFA1DD48FCF772FB2C
:103D1000D8B1DB48FFF7DBFE054600F075FCDE4955
:103D200008600846006801F0B1F905462A460B46CE
:103D3000DAA0FCF783FA0120DD4908600020D149B0
:103D40000880CF4981F8C70048E0DAA1CC48FCF7E9
:103D500051FBB8B1CA48FCF740FBD9490860084696
:103D6000006818B1D7A0FCF769FA02E0D8A0FCF708
:103D700065FA4FF001090020C2490880C04981F866
:103D8000C7002BE0D5A1BE48FCF734FB30B3BC48DC
:103D9000FCF723FBD449086008460168D3A0FCF770
:103DA0004DFA0120C24908600020B6490880B44994
:103DB00081F8C70012E0D2A1B148FCF71BFB68B143
:103DC000B048008800F4004040B1CEA0FCF736FABD
:103DD0000020AC490880AA4981F8C700B4480068AF
:103DE00000287CD04FF08F41AB48006801F006FB03
:103DF0000646C64901F0D8F9054601F097FAC449CC
:103E000008600968B84A126801FB02F000F0ADFED4
:103E1000C04A03C2BF480CC80020BF4900F0E2FC02
:103E200005460022BD4B01F047F8BA4A03C29A4842
:103E30000168B64801F0AEFB06464FF08F4101F035
:103E4000DDFA0546B64901F0AFF9B6490860B14957
:103E500003C900F05BFE85B2AD49098888B22946E6
:103E6000FFF7BEF84FF6FF704FF47843AEA228215B
:103E700000907320FEF78CFB8748006801F072FA0F
:103E800005464FF6FF704FF478432A4628210090EC
:103E90007320FEF78BFA4FF6FF704FF47843A4A21D
:103EA000282100907D20FEF773FB7B48006801F01D
:103EB0003DFA00EB80004FEA4008404601F072FAFC
:103EC000074697497448006801F098FA82463946D7
:103ED00001F060FB064601F045FA054600E021E0EE
:103EE0004FF6FF704FF478432A4628210090872030
:103EF000FEF75CFA4FF6FF704FF478438DA23C2139
:103F000000908220FEF744FB4FF6FF704FF4784399
:103F1000009075483C2102688220FEF747FA002095
:103F20006349086066480068B8B1B9F1000F14D061
:103F30004FF6FF704FF478437FA2142100906E205B
:103F4000FEF726FB4FF6FF704FF478437BA2142157
:103F500000906E20FEF71CFB19E059480068B0B9CC
:103F6000B9F1000F13D04FF6FF704FF4784372A2EF
:103F7000142100906E20FEF70BFB4FF6FF704FF4FC
:103F800078436FA2142100906E20FEF701FB4C488D
:103F90000068002859D06B48FFF761F8054601F02A
:103FA00019FA04465A48006800F0DFFD07468846C3
:103FB000204601F06BF8644A644BCDE9000100F043
:103FC0003BFE82463A46434600F00CFC054600F0B4
:103FD0001BFB0446204601F059F807465A4A5C4B41
:103FE00000F06AFF054600F00FFB0446204601F092
:103FF0004DF8054600F0B0F8074600F005FB044612
:104000004348056805EBD571481001F0CBF98246AD
:104010003F48066806EBD671481001F0C3F98346A5
:10402000214601F0EBF98046514601F05BF8074666
:10403000484901F057F802903A480168029801F0A7
:1040400051F802904FF000090EE03E48FFF707F8E4
:10405000064601F0BFF9054632480168284601F0DE
:1040600041F802904FF00009029801F07BF985B207
:104070002846FEF777F83BE6646163302C000000C9
:10408000600000201C000020766F6C746167652062
:1040900073657420746F00002400002077617665DA
:1040A0005F766F6C746167653D252E32660D0A0080
:1040B0002C000020776176652073657420746F0092
:1040C00020000020776176653A73696E0D0A000062
:1040D000776176653A7472690D0A000066726571DF
:1040E0002073657420746F00280000207761766566
:1040F0005F6672657175656E63793A25640D0A00B5
:1041000049444E003132333435360A000000A040B5
:104110005800002050000020882A81410000F03F14
:10412000000020415C000020202020200000000032
:104130002E000000202000002020200053696E0087
:104140005472690000040040F1D4C853FB210940B7
:10415000FB21F93F0000964300B5254B21F00042BA
:1041600087B09A4203DC0022134600922BE0214BD9
:104170009A4208D140B94FF00100FCF75AF9FFF715
:1041800016FC07B000BD03DBFFF70EFC07B000BD57
:1041900002AAFFF7FBF810F003014FF001000DD069
:1041A000012914D002291AD00DF1080C9CE80F0047
:1041B000FFF7B0FA07B081F0004100BD0DF1080C27
:1041C00000909CE80F00FFF779FB07B000BD0DF1F0
:1041D000080C9CE80F00FFF79DFA07B000BD0DF139
:1041E000080C00909CE80F00FFF768FBE2E7000076
:1041F000FB21E93F0000F07F10B586B004460121A5
:1042000044F20400FEF74CFD4FF40070ADF81400CA
:1042100003208DF8160018208DF8170005A91C48FA
:10422000FDF7D1FF4FF48060ADF8140004208DF845
:10423000170005A91648FDF7C6FF25208DF80000D8
:1042400003208DF801008DF8020001208DF8030095
:104250006846FEF7D1FC01940020ADF80800ADF8E7
:104260000A00ADF80C00ADF810000C20ADF80E00FF
:1042700001A90848FFF702F8012240F2255105483C
:10428000FEF7D6FF01210348FEF79CFF06B010BDE4
:1042900000080140003801402DE9F8430020FEF7F6
:1042A00035FE4FF6FF70FEF765F84FF6FF704FF4DE
:1042B00078438FA2002100900A20FEF769F94FF69B
:1042C000FF704FF4784390A2142100900A20FEF76B
:1042D0005FF94FF6FF704FF478438FA228210090CA
:1042E0000A20FEF755F94FF6FF704FF478438EA27F
:1042F000282100909620FEF74BF94FF6FF704FF4FF
:1043000078438AA23C2100900A20FEF741F94FF63B
:10431000FF704FF4784389A23C2100909620FEF76D
:1043200037F94FF6FF704FF4784385A25021009083
:104330000A20FEF72DF94FF6FF704FF4784384A260
:10434000642100900A20FEF723F94FF6FF704FF426
:10435000784383A2782100900A20FEF719F94FF0E4
:104360008F418248006801F049F80546804900F015
:104370001BFF044600F0DAFF7E49086009687E4AA8
:10438000126801FB02F000F0F0FB7C4A03C27B489C
:104390000CC800207A4900F025FA04460022794B27
:1043A00000F08AFD754A03C270480168704801F048
:1043B000F1F805464FF08F4101F020F804467249AC
:1043C00000F0F2FE714908606C4903C900F09EFBE1
:1043D00084B26849098888B22146FEF701FE4FF68B
:1043E000FF704FF478436AA2282100907320FEF7F3
:1043F000CFF85E48006800F0B5FF04464FF6FF7046
:104400004FF478432246282100907320FDF7CEFF19
:104410004FF6FF704FF478435FA2282100907D2073
:10442000FEF7B6F85148006800F080FF00EB80000E
:104430004700384600F0B6FF064653494B4800682F
:1044400000F0DCFF8046314601F0A4F8054600F09C
:1044500089FF04464FF6FF704FF478432246282127
:1044600000908720FDF7A2FF4FF6FF704FF47843CE
:104470004AA23C2100908220FEF78AF84FF6FF7096
:104480004FF4784300903C483C2102688220FDF7BD
:104490008DFF43480068A0B14FF6FF704FF478439A
:1044A00040A2142100906E20FEF772F84FF6FF70C4
:1044B0004FF478433CA2142100906E20FEF768F878
:1044C00013E04FF6FF704FF4784336A214210090AA
:1044D0006E20FEF75DF84FF6FF704FF4784333A27D
:1044E000142100906E20FEF753F8BDE8F883000019
:1044F000576176655F4672657175656E63792053A5
:10450000332B2053342D0000576176655F6F725F47
:1045100053696E3A00000000576176655F566F6C14
:10452000746167653A0000005600000057617665C7
:104530005F4672657175656E63793A00487A00006E
:1045400050432E302D2D2D2D53594E430000000089
:1045500050432E322D2D2D2D53434C4B0000000087
:1045600050432E342D2D2D2D44494E002400002083
:104570000000A0405800002028000020500000202B
:10458000882A81410000F03F000020415C000020AB
:1045900020202020000000002E000000202000002D
:1045A000200000202020200053696E005472690012
:1045B00010B500290AD00878002807D005487844AB
:1045C000FCF798FE002801D0002010BD0248784476
:1045D00010BD0000BE190000B619000010B500297A
:1045E0000AD00878002807D005487844FCF782FEF6
:1045F000002801D0002010BD0248784410BD000002
:10460000AE190000A619000021F00042A2F160528C
:10461000B2F5801F01F0004328BFD2F17F6C0BD9A7
:104620005FEA001C43EAC20242EB507018BF7047B9
:1046300028BF20F001007047B2F5801FBCBF1846AC
:1046400070474FEA410C1CF5001F02D2084600F0EB
:104650009CBF70B500F09AFB00000089FFF7F6BF21
:104660004FF00040A0F580007047000010B591EABF
:10467000030F48BF83F0004300F12684841A71EBD6
:10468000030C05D2121943EB0C03001B61EB0C0168
:10469000DFF824E14FEA1154A4EB135C1EEA430F48
:1046A00018BF9EEA445F73D023EA0E03DCF1200EAC
:1046B00021EA045143F4801332D322FA0CFE10EBAA
:1046C0000E0023FA0CFE41EB0E01CCF1200E03FA92
:1046D0000EFE10EB0E0051F10001B1F5801FCCF180
:1046E000200E32D201EB045112FA0EF2BDE8104056
:1046F00058BF7047401C38BF5FEA420218BF70477E
:10470000002814BF20F0010041F100014FEA4103ED
:1047100013F5001F38BF7047A1F1C04100F084BB02
:10472000012A43EB0302ACF1200CDCF11F0E32BF77
:104730004FF0000E23FA0CF310EB030041EB045191
:10474000B4EB115FD0D0A1EB045101F58011490801
:104750005FEA300001EB04510ED350F1000038BF86
:1047600012FA0EFE08D1BDE81040C9E7401C38BF60
:104770005FEA4202CAD1C3E7BDE810404FEA4103F5
:1047800013F5001F38BF7047A1F1C04100F04CBBCA
:104790009EEA445F08D011EA5E0FBDE8104004BFF6
:1047A00001F0004100207047BDE8104070B500F0F6
:1047B000EDFA00BF64FBBE3E0000E0FF02494FF08F
:1047C000000000F061BF00BF0000F87F491058BF33
:1047D000C1F140415B1058BFC3F140438B42EFF33E
:1047E000008070472DE9C04130B4DFF8A0C23CEA38
:1047F000111418BF3CEA131400F0EC8081EA0305A1
:104800001CEA111444EAD57418BF1CEA131500F011
:10481000C780A4EB05044FF0004545EAC12145EAF5
:10482000C32341EA505143EA525304F17F74994241
:1048300004F500344FEAC0204FEAC22208BF90427C
:1048400000F09C804FEA13650FF24016765D4FEA48
:10485000134506FB05F7C7F1807706FB07F74FEA1C
:10486000D737A7FB03687642C8F58038A7FB06CE8A
:1048700038BFA8F1010807FB08E64FF0000EA6FBC1
:10488000028CE6FB03CEDCF1000CCEF1004E38BF0B
:10489000AEF1010EA6FB0C584FF000074FF00005DB
:1048A000E6FB0E87A1FB08C6A0FB07CE16EB0E06A3
:1048B00045F10005E1FB076515F1E04E7EBFA4F56B
:1048C00080345FEA46066D4116F1800745F1000528
:1048D0004FEA17274FEA066647EA0567A6F1DE4664
:1048E000B6F1805F4FEA15251FD9384624F0010C38
:1048F00005EBC471BCF1FE6F01EB0C1102D8F0BCEA
:10490000BDE8008124425CBF01F5801E9EEAC47FA1
:1049100002D4F0BCBDE80081244238D4F0BCA1F13F
:10492000C041BDE8004100F07FBA4FEAD22242EA1E
:1049300043524FEAD323A7FB02864FEAD02040EA36
:10494000415007FB03661EEA0E0F4FEAD12105FB1B
:10495000026658BFA6EB0056B6EB00564FEA520E61
:104960004EEAC37E18EB0E0E56EB530EBDD518EB78
:1049700002085E417F1C55F10005B6E74FF4801533
:104980004FF000074FF000064FF00008ADE7F0BC15
:104990004FF0000001F1C04101F00041BDE800818D
:1049A00011EA0C1F0CEA131500D00CE013EA0C1FDF
:1049B00000F025804FF00000F0BC81EA030101F017
:1049C0000041BDE80081F0BCBDE8004181EA03017F
:1049D00000F02ABAF0BCBDE8004170B500F0D6F98D
:1049E000097EFC3E00F007B881EA03014FF00000A9
:1049F00001F00041704781EA030100F015BAF0BCF4
:104A0000BDE800414FF0000021497047FFFDFBF970
:104A1000F7F5F4F2F0EEEDEBE9E8E6E4E3E1E0DEF1
:104A2000DDDBDAD8D7D5D4D3D1D0CFCDCCCBCAC863
:104A3000C7C6C5C4C2C1C0BFBEBDBCBBBAB9B8B78A
:104A4000B6B5B4B3B2B1B0AFAEADACABAAA9A8A87D
:104A5000A7A6A5A4A3A3A2A1A09F9F9E9D9C9C9B4B
:104A60009A999998979796959594939392919190F6
:104A70008F8F8E8E8D8C8C8B8B8A89898888878787
:104A80008685858484838382828181800000FF07FC
:104A90000000F87F51EA030C17D41CF5801F58BFA3
:104AA000BCF5801F00F10680994218BF704708BF0F
:104AB0009042704707D711F5801F58BF13F5801F2C
:104AC00019D499427047894270471CF5801F08D558
:104AD000BCF5801FF7D58B4218BF704708BF8242D4
:104AE00070474FF4001C1CEB410F38BF1CEB430F09
:104AF00001D28B42704770B500F048F9922449000A
:104B00004FF000514FF08053FFF760BE4FEA410372
:104B10004FEA5353A3F58063D3F11E03C8BFD3F10B
:104B2000210C0CDD4FF0004242EAC12242EA505211
:104B300032FA03FC8CEAE17CACEBE1707047102B9D
:104B4000C4BF0020704703F5787CBCF1FF3F04D060
:104B50006FF0004282EA2100704770B500F016F94C
:104B60004992248000207047F2E710F0004248BFCD
:104B70004042B0FA80F310FA03F10AD0C3F11D03EA
:104B800003F580634FEA415002EB035202EBD1215F
:104B900070474FF000007047B0FA80F310FA03F14D
:104BA0000AD0C3F11D0303F580634FEA41504FEA79
:104BB000035202EBD12170474FF000007047000014
:104BC00051EA030C17D41CF5801F58BFBCF5801F99
:104BD00000F10680994218BF704708BF90427047A5
:104BE00007D711F5801F58BF13F5801F19D49942BC
:104BF0007047894270471CF5801F08D5BCF5801F9F
:104C0000F7D58B4218BF704708BF824270474FF4F8
:104C1000001C1CEB410F38BF1CEB430F01D28B4231
:104C2000704770B500F0B2F8922449004FF000517F
:104C30004FF08053FFF7CABDDFF848C170B51CEADA
:104C4000111E1EBF1CEA13159EEA0C0F95EA0C0FED
:104C500000F06F8081EA030423EA4C134EEAD47E0D
:104C600021EA4C1141F4801143F48013AE44A1FBBE
:104C7000024CA0FB0365AEF17F7E361955EB0C05A7
:104C8000A1FB034C4CF10003A0FB021C16EB0C062D
:104C9000654153F10003094218BF46F0010613F4C1
:104CA000007F0BD14FEA03314FEA0530340341EA6C
:104CB000155140EA16506FF003020AE04FEAC32193
:104CC0004FEAC520F40241EA555140EA56506FF0D0
:104CD000020202EB2E4201EB025585EACE710AD0A8
:104CE0005FEA440C18BF24F0004450F1000041F189
:104CF000000120EAD47040F2FE7C624500D270BD13
:104D0000A84214BF4FF080444FF04044002E08BF2B
:104D10000024BEF1806FA8BFA1F1C041BDE8704082
:104D200080F282804FF0000001F1C04101F00041AB
:104D300070479EEA0C0F0CEA131518BF95EA0C0F8A
:104D400006D04FF0000081EA030E0EF0004170BD66
:104D500000F01CF88900013E00F007B800F009B827
:104D60004FEA430C5FEA5C5C08D081EA030100F083
:104D70005BB84FEA410C5FEA5C5CF6D14FF0000093
:104D8000014970470000FF070000F87F0EF1020E96
:104D90002EF0030E5EF8046B364205D4012A43EB75
:104DA000030515F5001F12D8012841EB010C1CF575
:104DB000001F0CD80ED14FEAD17C15F5001F0CEB6B
:104DC0004C0C0CF1020C08BF4CEBD37C04E04FF010
:104DD000080C01E04FEAD37C0CEB4C0526FA05F6F3
:104DE00006F00706B6F1040C06D20EEB860CBDE801
:104DF00070404CF0010C6047DFE80CF0090B020238
:104E00004FF000414FF00000A1F5002170BD1946A0
:104E10001046012851EB010418BFD4F5001484BFDB
:104E2000002001F0004170BD0808A0F500114FEA14
:104E30003101704753EA010C17D41CF5801F58BF8D
:104E4000BCF5801F00F106808B4218BF704708BF79
:104E50008242704707D713F5801F58BF11F5801F96
:104E600019D48B4270479B4270471CF5801F08D5B0
:104E7000BCF5801FF7D5994218BF704708BF904214
:104E800070474FF4001C1CEB430F38BF1CEB410F65
:104E900001D2994270470FB40CBC03BCFFF7C1BEEE
:104EA00091EA030F10B581F000413FF5E7AB83F0C5
:104EB000004300F009B8000010B591EA030F48BFA5
:104EC00083F000433FF5DAAB841A71EB030C07D291
:104ED00012198CF0004C43EB0C03001B61EB0C012E
:104EE000DFF8A4E14FEA1154A4EB135C1EEA430F70
:104EF00018BF9EEA445F00F0B08023EA6E0352427E
:104F000021EA0451C3EB6E0338BF5B1EDCF1200EB7
:104F100025D322FA0CFE10EB0E0043FA0CFE41EBF7
:104F20000E01CCF1200E03FA0EFE10EB0E0051F133
:104F30000001CCF1200E29D412FA0EF201EB04513B
:104F4000BDE8104058BF7047401C1CBFB2F1004F75
:104F5000704700280CBF491C20F00100704712EB7D
:104F6000020E43EB030218BF4FF0010E4EEA42025D
:104F7000ACF1200CDCF11E0E54D943FA0CFE10EB00
:104F80000E0051F1FF31CCF11E0ED5D50EF1010E00
:104F900012FA0EFE404141EB010101EB445C5FEA75
:104FA0005C5C10D910EBDE7001EB045138BFBEF130
:104FB000004FBDE8104018BF704700280CBF491CC7
:104FC00020F00100704730D24FEAD42C11F50011C7
:104FD00024F400641BD0B1FA81F20B3AA41AA41E87
:104FE000D2F12003914030FA03F31943904001EBD2
:104FF000CC71002C01EB0451BDE81040A8BF7047F4
:1050000001F1C0414FF0000001F000417047B0FADB
:1050100080F310FA03F100D110BDE41A173C4805E3
:10502000C90AE4E701EB045110BD491001EB04513A
:10503000BDE810404FEA300002E04FF00001704739
:105040004A0008BF0042F8D0B2F5001F28BF7047E1
:1050500001F000414FF0000070479EEA445F07D026
:1050600011EA5E0FBDE8104004BF00210020704728
:10507000BDE8104070B5FFF789FE00BF40DFF63E87
:1050800083F00041104670470000E0FF43004FEA04
:10509000D30C4FEA3C0C43401FBF40070CF160515A
:1050A00013F0FE4F70471CF0006F03D100200CF08E
:1050B000004170470CF0004343EA507010B540EADD
:1050C000CC0000F01CFA00BF000000924FEA000183
:1050D000FFF7AABE4FF000414FF00000A1F50021FC
:1050E0007047000090EA010F48BF81F0004100F1D5
:1050F0005882421A3CBF801A89184FEAD0524FF0AA
:105100007F4C1CEA410FA2EBD15318BF9CEA026FFF
:1051100000F03B804FF0004C4CEA00204CEA0121AB
:1051200021FA03FC10EB0C0C1ED202F1FF325FEAF5
:105130001C2040EBC25038BF70471CF07F0F4FEA75
:10514000400C18BFBCF17F4F38BF7047C3F120033C
:10515000994008BF20F00100BCF17F4F38BF704775
:10516000A0F1C04000F011BA4FEA3C00000A40EB49
:10517000C25028BF1CF0FF0F4FEA400CE6D018BF0A
:10518000BCF17F4F38BF7047EAE79CEA026F05D059
:1051900010EA5C0F08BF00F00040704710B500F047
:1051A000AEF900BF64FBBE3E4FF47F0C1CEAD01288
:1051B0001EBF1CEAD11392EA0C0F93EA0C0F00F009
:1051C000858090EA010F48BF42F4807240F4000CE1
:1051D00041F400002CF07F4120F07F4000B5814277
:1051E000A2EB03020FF2081CACEB504EC0F1000022
:1051F0009EF800E04FEA4E0E00FB0EFC38BF49005F
:105200004FEA2C1C02F5FA020CFB0EF34FEACE1EFD
:105210004FEA112C4FEAC1210EEB635E42EB2242B2
:105220000EFB0CFC4FEA1C5300FB03114FEA112C40
:105230004FEA01310EFB0CFC4FEADC4C00FB0C1179
:10524000C14228BF09184CEB03335DF804EB10EBA7
:10525000410143EBC250B2F57C0F38BF704729D5EE
:1052600012F0F00F1CBF00F1C04000F0004070478A
:10527000008182838485868788898B8C8D8E8F912F
:105280009293959697999A9C9D9FA0A2A3A5A7A853
:10529000AAACAEB0B2B3B5B7B9BCBEC0C2C5C7C97F
:1052A000CCCED1D4D7D9DCDFE2E6E9ECF0F3F7FAE3
:1052B000FE0000004FEA400C0CF1807CBCF17E4FF8
:1052C00028BF7047B0F1C04000F05FB990EA010F0D
:1052D0000CEAD11348BF42F48072624538BF63457F
:1052E00007D213F47F0F16D080EA010000F00040CF
:1052F000704710B500F003F9097EFC3E00F005B8D8
:1053000080EA010000F00040704780EA010000F0F0
:10531000004000F03AB912F47F0F04BF0248704712
:1053200080EA010000F031B90000C07F41000B0E9F
:10533000D3F19E0208D950F400034FEA032323FA65
:1053400002F048BF4042704710B500F0D8F800BFE7
:1053500049922480002070476FF0004282EA2000CA
:1053600070470000C10DD1F19E0206DB4FEA002319
:1053700043F0004323FA02F07047004207D54FEA9A
:105380004001B1F1FE4F02D24FF00000704710B55E
:1053900000F0B5F849922480002070476FEA2000A1
:1053A0007047000010F0004148BF4042B0FA80F35F
:1053B00010FA03F2C3F19D030BD051EAC35101EB84
:1053C0001220530638BF704700F1010008BF20F0DB
:1053D00001007047B0FA80F310FA03F2C3F19D03A5
:1053E0000AD0D90501EB1220530638BF704700F1EF
:1053F000010008BF20F00100704700004FF47F0C4F
:105400001CEAD0121EBF1CEAD11392EA0C0F93EAD9
:105410000C0F00F0478090EA010F48BF42F4807201
:105420004FF0004C4CEA00204CEA012102EB030251
:10543000A0FB0113A2F50002002918BF43F00103ED
:105440005B0028BF4FEA330342EB22425FEA132C92
:105450004CEBC2502EBFBCEB436FB2F57C0F7047D4
:105460004FEA036CBCF1004F08BF20F00100B2F519
:105470007C0F38BF70470BD582F0FF0212F5803FDA
:10548000C8BF704700F1C040D8BF00F0004070476F
:1054900000F5000C5FEA4C0C48BF7047B0F1C0400B
:1054A00000F073B890EA010F0CEAD11348BF42F440
:1054B0008072624538BF634504D280EA010000F083
:1054C0000040704710B500F01AF800BF8900013E97
:1054D00000F007B800F009B85FEA410C5FEA1C6C05
:1054E00008D080EA010000F050B85FEA400C5FEAA3
:1054F0001C6CF6D14FF00040A0F5800070470EF113
:10550000020E2EF0030E5EF8044B244204D44FEA40
:105510004102B2F17F4F11D84FEA4003B3F17F4F00
:105520000CD80ED14FEAD07CB2F17F4F0CEB4C0C73
:105530000CF1020C08BF4CEBD17C04E04FF0080CDE
:1055400001E04FEAD17C0CEB4C0324FA03F404F0A5
:105550000704B4F1040C06D20EEB840CBDE8104035
:105560004CF0010C6047DFE80CF0070802024FF036
:105570000040A0F5800010BD0846420018BFD2F1DF
:10558000807288BF00F0004010BDFF2141EAD0507A
:10559000C005704790EA010F48BF81F000413FF518
:1055A000A8AD421A04D882F00042A0EB02001144D8
:1055B0004FEAD0524FF07F4C1CEA410FA2EBD1537F
:1055C00018BF9CEA026F4AD04FF0004C4CEA002012
:1055D0004CEA012121FA03FCB0EB0C0C0FD412F0C1
:1055E000FE0F36D05FEA4C001DD5001240EBC250D2
:1055F00038BF70471CF03F0F18BF70470BE0A2F197
:1056000001025FEA1C2040EBC25038BF70471CF01B
:105610007F0F18BF7047C3F12003994014BF401E8D
:1056200020F00100704780084FEA122308BF70473E
:10563000B0FA80FCA2EB0C02CCF1280C60FA0CF062
:1056400093EA122F04BF00EBC25070474FEAC370B9
:105650007047130A5FEADC1008BF7047F6E79CEA60
:10566000026F04D010EA5C0F08BF0020704710B52D
:10567000FFF745FF40DFF63E81F0004070474FF0F6
:1056800000007047FBF70DB80CF00F03092B08BFA3
:10569000082000F05F800A2B0BD0082B18BF704742
:1056A00008BF1CF0400F0AD04FF000004FF000017F
:1056B00070471CF0400F18BF4FF0004070471CF0BF
:1056C000100F08D020F0704300F07F4242EAD3016F
:1056D0004FEA4370704700F0604021F07F4242EA99
:1056E000000201F07F4040EA727070474FF0FF0CFB
:1056F0004CF4E06C1CEA11531CBF9CEA030C94456B
:10570000C2BFDA4201EB02517047002B0DD0BCF151
:10571000000F0FD0002A01F00041A4BF41F0E0418A
:1057200041F07F614FF00000704701F000414FF001
:105730000000704750EA01334FF09B0C18BF4CF04B
:10574000806C7FF43BA87047FBF774BCFBF712BE7C
:10575000FBF7A0BF1CF4801F11D01CF4E02F03D076
:105760006FEACC31490070474FF04050EFF30082B0
:1057700022F0704242EA000282F3008870474FF044
:105780000000704700000000000000000000000062
:105790000000000000000010101010101010000099
:1057A0001818000000123624480000000000000015
:1057B00000000000000000242424FE484848FE4861
:1057C0004848000000001038545450301814145445
:1057D0005438101000000044A4A8A8A8541A2A2A7B
:1057E0002A44000000000030484848506EA49488C5
:1057F0008976000000606020C0000000000000000A
:10580000000000000002040808101010101010081A
:1058100008040200004020101008080808080810BA
:1058200010204000000000001010D63838D61010AC
:10583000000000000000000010101010FE101010FA
:105840001000000000000000000000000000000048
:10585000606020C000000000000000007F00000029
:105860000000000000000000000000000000000038
:10587000606000000000010202040408081010200B
:10588000204040000000001824424242424242426E
:1058900024180000000000107010101010101010DC
:1058A000107C00000000003C42424204040810202A
:1058B000427E00000000003C424204180402024202
:1058C00044380000000000040C14242444447E04E6
:1058D000041E00000000007E404040586402024266
:1058E000443800000000001C2440405864424242FA
:1058F000241800000000007E444408081010101016
:10590000101000000000003C424242241824424291
:10591000423C00000000001824424242261A0202C3
:1059200024380000000000000000181800000000EB
:105930001818000000000000000000100000000027
:105940000010102000000002040810204020100861
:1059500004020000000000000000FE000000FE0045
:10596000000000000000004020100804020408109D
:10597000204000000000003C42426202040808008F
:105980001818000000000038445AAAAAAAAAB44273
:10599000443800000000001010182828243C44421D
:1059A00042E70000000000F8444444784442424288
:1059B00044F800000000003E424280808080804227
:1059C00044380000000000F8444242424242424251
:1059D00044F80000000000FC424848784848404233
:1059E00042FC0000000000FC424848784848404023
:1059F00040E000000000003C44448080808E8444ED
:105A000044380000000000E7424242427E424242E7
:105A100042E700000000007C101010101010101061
:105A2000107C00000000003E08080808080808086C
:105A3000080888F0000000EE444850705048484480
:105A400044EE0000000000E0404040404040404044
:105A500042FE0000000000EE6C6C6C6C5454545418
:105A600054D60000000000C7626252524A4A4A46B9
:105A700046E20000000000384482828282828282F4
:105A800044380000000000FC424242427C4040405A
:105A900040E0000000000038448282828282B2CA64
:105AA0004C380600000000FC4242427C4848444416
:105AB00042E300000000003E42424020180402423F
:105AC000427C0000000000FE921010101010101018
:105AD00010380000000000E7424242424242424287
