:020000040800F2
:1000000060070020D501000823110008250A000818
:100010001F110008510500088B180008000000009F
:10002000000000000000000000000000C1120008F5
:100030000506000800000000A9110008D5130008FB
:10004000EF010008EF010008EF010008EF010008D0
:10005000EF010008EF010008EF010008EF010008C0
:10006000EF010008EF010008EF010008EF010008B0
:10007000EF010008EF010008EF010008EF010008A0
:10008000EF010008EF010008EF010008EF01000890
:10009000EF010008EF010008EF010008EF01000880
:1000A000EF010008EF010008EF010008EF01000870
:1000B000EF010008F1140008EF010008EF0100084B
:1000C000EF010008EF010008EF010008EF01000850
:1000D000EF01000869160008EF010008EF010008B1
:1000E000EF010008EF010008EF010008EF01000830
:1000F000EF010008EF010008EF010008EF01000820
:10010000EF010008EF010008EF010008EF0100080F
:10011000EF010008EF010008EF010008EF010008FF
:10012000EF010008EF010008EF010008EF010008EF
:1001300000F002F800F03FF80AA090E8000C8244BA
:100140008344AAF10107DA4501D100F034F8AFF297
:10015000090EBAE80F0013F0010F18BFFB1A43F0A5
:100160000103184794280000B4280000103A24BF67
:1001700078C878C1FAD8520724BF30C830C144BF0C
:1001800004680C607047000000230024002500264E
:10019000103A28BF78C1FBD8520728BF30C148BFEA
:1001A0000B607047642900F07780002070471FB50E
:1001B0001FBD10B510BD00F037F91146FFF7F7FF6E
:1001C00001F0E4FB00F055F903B4FFF7F2FF03BCC4
:1001D00001F05DFB0948804709480047FEE7FEE75C
:1001E000FEE7FEE7FEE7FEE7FEE7FEE7FEE7FEE7E7
:1001F00004480549054A064B70470000D91300081A
:100200003101000860010020600700206003002029
:1002100060030020704700000FB4044910B503AA22
:10022000029800F0D3F810BC5DF814FB1800002011
:100230002DE9F0410E460446002020622046E16888
:10024000884730B3252805D0D4E901219047206A9A
:10025000401CF2E7E168204600278847050018D0D7
:10026000A5F14100192802D820354FF40067324625
:10027000294620462760FFF795FF40B1012804D0AA
:10028000F61D26F007060836D8E7361DD6E72846BD
:10029000DAE7206ABDE8F0812DE9F0410646002446
:1002A00010687529314616A510D0AFF300800028DC
:1002B00002DA404213A507E031688A0701D512A58A
:1002C00002E0490704D511A5012401E0AFF3008045
:1002D00000210A2206F1240709E0B0FBF2FCB0FB82
:1002E000F2F302FB1C00303078541846491C0028F9
:1002F000F3D123462A463046BDE8F04100F00CB861
:10030000000000002D0000002B0000002000000075
:1003100070477047704770472DE9F0470D46994682
:100320009246044600F124080168880604D5E06975
:1003300021F01001216000E00120A84201DD471BEF
:1003400000E00027A1697A1902EB0900081AA061F0
:100350002078C00602D42046AFF30080002608E0D3
:10036000D4E901211AF806009047206A401C761C47
:1003700020624E45F4DB2078C0060AD52046AFF354
:10038000008006E0D4E9012130209047206A401C1B
:100390002062381EA7F10107F4DC07E0D4E901214F
:1003A00018F805009047206A401C2062281EA5F11D
:1003B0000105F3DC2046AFF300802078000602D56B
:1003C0000220BDE8F0870120FBE70000074B70B575
:1003D0000D467B4400F011F80446284600F020F852
:1003E00010B14FF0FF3070BD204670BD9B1500006E
:1003F00001694A1C02610878704700B58FB0CDE9E9
:1004000001310021059105497944CDE903101146D8
:100410006846FFF70DFF0FB000BD0000E5FFFFFFCE
:10042000007B00F080007047754600F02BF8AE4668
:1004300005006946534620F00700854618B020B5F0
:10044000FFF7D6FEBDE820404FF000064FF0000752
:100450004FF000084FF0000B21F00701AC46ACE86C
:10046000C009ACE8C009ACE8C009ACE8C0098D46D9
:10047000704710B50446AFF300802046BDE8104039
:10048000FFF7A2BE00487047000100202DE9F043AD
:1004900007460C4615461E46DDE907892B480088AD
:1004A00042F26D41884227D1502000F010FE3846BC
:1004B00000F026FE512000F00AFE284600F020FE43
:1004C000522000F004FE204600F01AFE532000F0F7
:1004D000FEFD304600F014FE202000F0F8FD4046FE
:1004E00000F00EFE212000F0F2FD484600F008FE6C
:1004F000222000F0ECFD26E01448008842F27D4105
:10050000884220D12A2000F0E2FD381200F0F8FDE8
:10051000F8B200F0F5FD281200F0F2FDE8B200F0AC
:10052000EFFD2B2000F0D3FD201200F0E9FDE0B23A
:1005300000F0E6FD301200F0E3FDF0B200F0E0FD67
:100540002C2000F0C4FDBDE8F08300003200002044
:1005500000BFFEE708B50121102000F037FE15208E
:10056000ADF8000010208DF8030003208DF8020084
:100570006946084800F047F80121064800F021F9D3
:100580004FF4004000F016F84FF4521000F012F84B
:1005900008BD00000010014010B5044644F480106E
:1005A00000F008F810BD10B5044644F4101000F037
:1005B00001F810BD70B504460121114800F0FFF8A4
:1005C000002516E004210E4800F0FBF804F40000BA
:1005D00020B110210A4800F0F4F803E01021084887
:1005E00000F0EDF80421064800F0E9F86400681C0A
:1005F000C5B2182DE6DB0121014800F0E2F870BD1C
:100600000010014070472DE9F04102460025002608
:10061000002000230024002791F803C00CF00F05F0
:1006200091F803C00CF0100CBCF1000F03D091F84E
:1006300002C04CEA050591F800C0BCF1000F31D0B2
:10064000146800202BE04FF0010C0CFA00F3B1F815
:1006500000C00CEA03069E4220D183004FF00F0C2D
:100660000CFA03F7BC4305FA03FC4CEA040491F8C6
:1006700003C0BCF1280F06D14FF0010C0CFA00FCAE
:10068000C2F814C00AE091F803C0BCF1480F05D1CC
:100690004FF0010C0CFA00FCC2F810C0401C0828F6
:1006A000D1D31460B1F800C0BCF1FF0F34DD546841
:1006B00000202EE000F1080C4FF0010808FA0CF3BE
:1006C000B1F800C00CEA03069E4221D183004FF02E
:1006D0000F0C0CFA03F7BC4305FA03FC4CEA0404C4
:1006E00091F803C0BCF1280F05D100F1080C08FAFD
:1006F0000CF8C2F8148091F803C0BCF1480F07D180
:1007000000F1080C4FF0010808FA0CF8C2F810804C
:10071000401C0828CED35460BDE8F081F0B50A46ED
:10072000002300240021002500F00046B6F1004F10
:1007300002D11D4EF16901E01B4E7168C0F3034503
:1007400083B200F44016B6F5401F08D121F0706165
:10075000154E766826F07066134F7E6012E000F446
:100760008016B6F5801F06D1032606FA05F4A143CC
:1007700041F0706106E0460D360103FA06F6B1431A
:1007800041F0706122B1460D360103FA06F631439D
:1007900000F00046B6F1004F02D1034EF16101E0D6
:1007A000014E7160F0BD00000000014002460020D3
:1007B00093680B400BB1012000E0002070474161BD
:1007C0007047016170477CB506460020009040F2FA
:1007D0003F13EF2201460190FFF758FE00240AE084
:1007E000002504E0304600F08BFC681CC5B2F02DFB
:1007F000F8DB601C84B2B4F5A07FF1DB7CBD2DE991
:10080000FF470746884614469946DDF830A042F275
:100810001070B4FBF0F00A21B0FBF1F201FB120002
:100820008DF808004FF47A70B4FBF0F0B0FBF1F2F1
:1008300001FB12008DF809006420B4FBF0F0B0FB5E
:10084000F1F201FB12008DF80A000A20B4FBF0F06F
:10085000B0FBF1F201FB12008DF80B000A20B4FB93
:10086000F0F100FB11408DF80C0042F21070B4FB67
:10087000F0F008B1052517E04FF47A70B4FBF0F002
:1008800008B1042510E06420B4FBF0F008B10325A2
:100890000AE00A20B4FBF0F008B1022504E00CB134
:1008A000012501E004B90125002612E00020C5F170
:1008B0000501314402ABCDE900A0595C3031CAB228
:1008C00007EBC601C8B24B46414600F007F8701C62
:1008D000C6B2AE42EADBBDE8FF8700002DE9FF4F5C
:1008E00083B004460D469246DDF840B0DFF8F08054
:1008F000AAF1200008EB0018BBF1010F38D01198C5
:1009000048B905F10F0083B2E21D29462046CDE922
:100910000045FFF7BBFD119801280BD104F10F0032
:10092000CDE90005E81D83B204F10F0229462046F7
:10093000FFF7ACFD002718E0002610E098F8000053
:10094000C6F1070201219140084018B1069800F055
:10095000D7FB02E0584600F0D3FB701CC6B2082E4D
:10096000ECDB08F10108781CC7B2102FE4DB34E09F
:10097000A14600272FE0002627E02B4622462946E5
:100980002046CDE90045FFF781FD98F80000C6F14B
:10099000070201219140084060B1069800F0B0FBC9
:1009A000601CC4B2A4EB090008280CD14C46681C9A
:1009B00085B208E0601CC4B2A4EB0900082802D18B
:1009C0004C46681C85B2701CC6B2082ED5DB08F1F7
:1009D0000108781CC7B2102FCDDB07B0BDE8F08F3F
:1009E000E82300082DE9FC4706460F4614469846C2
:1009F000DDF82890002510E0207880280DDA00200E
:100A0000CDE90090227806EBC501C8B243463946CD
:100A1000FFF764FF681CC5B2641C20780028EBD186
:100A2000BDE8FC8700BFFEE708B50121242000F0E7
:100A3000CDFB0C20ADF8000048208DF8030069467E
:100A40000648FFF7E0FD0120ADF8000028208DF8F2
:100A5000030069460248FFF7D6FD08BD00140140B7
:100A60000008014010B5044614B101201A4908706D
:100A700019480078F8B104211848FFF797FE28B10B
:100A800001211748FFF792FE012814D10A2000F037
:100A900023FF00201049087004211048FFF786FE4C
:100AA00008B9012010BD01210D48FFF77FFE012884
:100AB0000FD10320F6E704210848FFF777FE01284D
:100AC00007D101210648FFF771FE10B90120024944
:100AD00008700020E6E70000340000200014014008
:100AE0000008014010B5044614B1012011490870F6
:100AF0001048007898B101210F48FFF757FE0128F0
:100B00000DD10A2000F0E8FE00200A4908700121FA
:100B10000948FFF74BFE012809D1032010BD012130
:100B20000548FFF743FE10B9012002490870002074
:100B3000F4E70000350000200008014070B50446CD
:100B4000204600F0C4FA4FF0883013490860091DB0
:100B500008604FF6FF7010490C310860012000F06A
:100B60009FFC002000F086FC052000F0DBFE012049
:100B700000F080FC08480830006885B24FF0333040
:100B800005490860091D08604FF6FF7002490C31E5
:100B90000860284670BD0000000C014008B5012126
:100BA000042000F013FB0220ADF8000010208DF8A7
:100BB000030003208DF8020069460448FFF723FD77
:100BC00002210248FFF7FDFD08BD000000080140BA
:100BD00008B50121084600F0F9FA01211248FFF793
:100BE0009DFD01211C2000F0F1FA4FF6FF70ADF8D9
:100BF000000010208DF8030003208DF802006946E4
:100C00000A48FFF700FD4FF4E060ADF800006946C8
:100C10000748FFF7F8FC4FF40040ADF800006946C4
:100C20000448FFF7F0FC08BD00023000000C014052
:100C3000001001400008014010B5FFF7C9FF012076
:100C400000F0FAFB012000F015FC012000F03CFC54
:100C5000052000F041FE002000F0EEFB322000F005
:100C60003BFE0121002000F041FA322000F034FE6A
:100C70000020FFF763FFFE4908800846008849F21C
:100C80002531884216D0FA480088C91C884211D004
:100C9000F748008849F23D3188420BD0F44800887B
:100CA00049F22031884205D0F148008849F23831B4
:100CB00088427DD142F26D40ED4908804FF4807149
:100CC000012000F013FA4FF4E061022000F00EFA68
:100CD00041F23001032000F009FA0021042000F065
:100CE00005FA40F20221082000F000FA0021092054
:100CF00000F0FCF900210A2000F0F8F900210C2096
:100D000000F0F4F900210D2000F0F0F900210F208F
:100D100000F0ECF90021102000F0E8F90721112083
:100D200000F0E4F90021122000F0E0F90021132086
:100D300000F0DCF90121072000F0D8F9322000F0A2
:100D4000CBFD41F29061102000F0D0F940F2272154
:100D5000112000F0CBF9322000F0BEFD9D211220C1
:100D600000F0C4F9322000F0B7FD4FF4C851132051
:100D700000F0BCF9322000F0AFFD2521292000F061
:100D8000B5F90D212B2000F0B1F9322000F0A4FDBF
:100D90000021202000F0AAF90021212000F0A6F96E
:100DA000322000F099FD0721302000F09FF900E08B
:100DB00070E040F20331312000F098F90321322035
:100DC00000F094F940F20621352000F08FF9082157
:100DD000362000F08BF940F20641372000F086F90A
:100DE0004FF44171382000F081F90721392000F0DB
:100DF0007DF940F201613C2000F078F908213D20A6
:100E000000F074F90021502000F070F9EF2151201A
:100E100000F06CF90021522000F068F940F23F1117
:100E2000532000F063F94FF42741602000F05EF991
:100E30000121612000F05AF900216A2000F056F9E2
:100E40000021802000F052F90021812000F04EF9AD
:100E50000021822000F04AF90021832000F046F9A9
:100E60000021842000F042F90021852000F03EF9A5
:100E70001021902000F03AF94FF4C061922000F068
:100E800035F940F23311072000F030F9222000F04C
:100E90001EF91BE142F27D4075490880CF2000F029
:100EA00016F9002000F02CF9C12000F029F93020BB
:100EB00000F026F9ED2000F00AF9642000F020F996
:100EC000032000F01DF9122000F01AF9812000F033
:100ED00017F9E82000F0FBF8852000F011F9102048
:100EE00000F00EF97A2000F00BF9CB2000F0EFF8BB
:100EF000392000F005F92C2000F002F9002000F064
:100F0000FFF8342000F0FCF8022000F0F9F8F72098
:100F100000F0DDF8202000F0F3F8EA2000F0D7F828
:100F2000002000F0EDF8002000F0EAF8C02000F00A
:100F3000CEF81B2000F0E4F8C12000F0C8F8012032
:100F400000F0DEF8C52000F0C2F8302000F0D8F83C
:100F5000302000F0D5F8C72000F0B9F8B72000F035
:100F6000CFF8362000F0B3F8082000F0C9F83A2096
:100F700000F0ADF8552000F0C3F8B12000F0A7F85C
:100F8000002000F0BDF81A2000F0BAF8B62000F0FA
:100F90009EF80A2000F0B4F8A22000F0B1F8F22088
:100FA00000F095F8002000F0ABF8262000F08FF854
:100FB000012000F0A5F8E02000F089F80F2000F0F3
:100FC0009FF82A2000F09CF8282000F099F80820CB
:100FD00000F096F80E2000F093F8082000F090F84A
:100FE000542000F08DF8A92000F08AF8432000F08A
:100FF00087F80A2000F084F80F2000F081F8002024
:1010000000F07EF8002000F07BF8002000F078F877
:10101000002000F075F8E12000F059F8002000F001
:101020006FF8152000F06CF8172000F069F8072021
:1010300000F066F8112000F063F8062000F060F878
:101040002B2000F05DF8562000F05AF83C2000F00C
:1010500057F8052000F054F8102000F051F80F2048
:1010600000F04EF83F2000F04BF83F2002E0000077
:101070003200002000F044F80F2000F041F82B204F
:1010800000F025F8002000F03BF8002000F038F8D0
:10109000012000F035F83F2000F032F82A2000F05F
:1010A00016F8002000F02CF8002000F029F80020AD
:1010B00000F026F8EF2000F023F8112000F007F8E8
:1010C000782000F009FC292000F001F810BD00B5DF
:1010D0000346002000F0E4F9184600F0C1F90020B2
:1010E00000F0F2F9012000F0EFF900BD30B505463F
:1010F0000C462846FFF7EBFF204600F001F830BD14
:1011000000B50346012000F0CBF9184600F0A8F91D
:10111000002000F0D9F9012000F0D6F900BD00BF91
:10112000FEE7704770B5002100230F22C47804B396
:10113000154C246804F4E064C4F5E064210AC1F1AC
:101140000403CA40447804FA03F18478144021432C
:1011500009010E4C0678A155047804F01F050124FE
:10116000AC4005786D11AD0005F1E025C5F80041F2
:1011700009E0047804F01F050124AC40044D067812
:10118000761145F8264070BD0CED00E000E400E06B
:1011900080E100E002490143024A1160704700000B
:1011A0000000FA050CED00E07047000029B1064A86
:1011B000D2690243044BDA6104E0034AD2698243F4
:1011C000014BDA61704700000010024029B1064A65
:1011D00092690243044B9A6104E0034A9269824394
:1011E000014B9A61704700000010024030B50021A9
:1011F0000022002400232D4D6D6805F00C0121B163
:10120000042905D0082923D105E0294D056022E0F5
:10121000274D05601FE0254D6D6805F47012234DC4
:101220006D6805F48034022505EB92421CB9214D0E
:10123000554305600BE01D4D6D6805F400351DB18B
:101240001C4D5543056002E0194D5543056002E011
:10125000174D056000BF00BF144D6D6805F0F0012B
:101260000909154D6B5C0568DD4045600F4D6D68E3
:1012700005F4E061090A104D6B5C4568DD4085604E
:101280000A4D6D6805F46051C90A0B4D6B5C4568E9
:10129000DD40C560054D6D6805F44041890B074D83
:1012A0006B5CC568B5FBF3F5056130BD001002400D
:1012B00000127A0000093D001E0000202E000020D0
:1012C000704710B500F002F810BD00000CB500200A
:1012D000019000903348006840F480303149086044
:1012E00000BF3048006800F4003000900198401CB6
:1012F0000190009818B90198B0F5A06FF1D1294874
:10130000006800F4003010B10120009001E00020DE
:1013100000900098012843D12348006840F0100055
:10132000214908600846006820F00300086008466C
:10133000006840F0020008601A4840681949486097
:101340000846406848600846406840F4806048604D
:101350000846406820F47C1048600846406840F425
:10136000E81048600846006840F08070086000BFE0
:101370000C48006800F000700028F9D00948406867
:1013800020F00300074948600846406840F002002A
:10139000486000BF0348406800F00C000828F9D1FD
:1013A0000CBD00000010024000200240042808D1BB
:1013B0004FF0E021096941F004014FF0E022116192
:1013C00007E04FF0E021096921F004014FF0E0222D
:1013D000116170477047000010B51348006840F075
:1013E00001001149086008464068104908400E494C
:1013F0004860084600680E4908400B4908600846E6
:10140000006820F4802008600846406820F4FE0050
:1014100048604FF41F008860FFF753FF4FF00060F3
:101420000449086010BD0000001002400000FFF8F1
:10143000FFFFF6FE08ED00E0012806D10749096923
:1014400041F48071054A116106E028B903494969F0
:1014500041F48071014A5161704700000010014061
:101460004FF6FF71024A1160111F086070470000BB
:10147000140C0140012806D10849096841F40041D3
:10148000064A116008E038B90449091D096841F4A9
:101490000041024A121D116070470000100801400F
:1014A000012806D10749096941F40071054A116113
:1014B00006E028B90349496941F40071014A5161C4
:1014C0007047000000100140012806D10749096952
:1014D00041F48061054A116106E028B90349496970
:1014E00041F48061014A51617047000000100140E1
:1014F00010B50121044800F04BF818B10121024851
:1015000000F034F810BD0000000400407FB505462F
:101510000C4601210220FFF749FE0020ADF80A0029
:101520006020ADF80600ADF80850ADF8044001A900
:101530000D4800F047F8012211460B4800F039F839
:101540001D208DF8000001208DF8030000208DF88B
:10155000010003208DF802006846FFF7E3FD01213A
:10156000014800F006F87FBD00040040CA43028233
:10157000704721B1028842F00102028004E0028833
:101580004FF6FE731A40028070470146888C704700
:1015900030B50246002000230024158A05EA010325
:1015A000958905EA010413B10CB1012000E0002087
:1015B00030BD1AB183890B43838102E083898B4359
:1015C00083817047002202881D4B98420ED01D4B2C
:1015D00098420BD0B0F1804F08D01B4B984205D0F9
:1015E0001A4B984202D01A4B984204D14FF68F738F
:1015F0001A404B881A43174B984207D0164B984213
:1016000004D04FF6FF431A40CB881A4302808B88E0
:1016100083850B8803850A4B98420BD0094B98426F
:1016200008D00E4B984205D00D4B984202D00D4B7E
:10163000984201D10B7A0386012383827047000010
:10164000002C01400034014000040040000800402C
:10165000000C004000100040001400400040014019
:10166000004401400048014010B540F225511D489A
:1016700000F04AF810B31B4800F002F9C4B21A484F
:10168000008800F40040C8B91748008800F4804082
:1016900060B10A2C03D000201349088020E01248D2
:1016A000008840F400401049088019E00D2C06D154
:1016B0000D48008840F480400B49088010E00A483B
:1016C0000088C0F30D0009490C5407480088401CED
:1016D0000549088008460088C72801DD00200880E9
:1016E00010BD0000003801401C0000203800002020
:1016F00021B1828942F40052828104E082894DF650
:10170000FF731A408281704770B50246002400239F
:101710000025002040F66A16B14200D100BFC1F397
:10172000421501F01F03012606FA03F3012D02D131
:101730009689334006E0022D02D1168A334001E03B
:10174000968A33400C12012606FA04F416883440B7
:1017500013B10CB1012000E0002070BDF0B50346CC
:10176000002400260025002040F66A17B94200D167
:1017700000BF1846C1F3421401F01F06012707FA03
:1017800006F5012C01D10C3004E0022C01D11030FF
:1017900000E014301AB107682F43076002E00768C1
:1017A000AF430760F0BD00002DE9F04786B0054665
:1017B0000E460024A24600BFA1460027B08900B112
:1017C00000BF2F462C8A4CF6FF700440F08804437B
:1017D0002C82AC894EF6F3100440B088318908435E
:1017E000718908430443AC81AC8A4FF6FF40044042
:1017F000B0890443AC8201A8FFF7F8FC1F48874278
:1018000002D1DDF810A001E0DDF80CA0A88900F4F9
:10181000004040B10AEBCA0000EB0A1031684900F1
:10182000B0FBF1F807E00AEBCA0000EB0A103168E0
:101830008900B0FBF1F86420B8FBF0F00401200946
:10184000642101FB1089A88900F4004040B13220D6
:1018500000EBC900B0FBF1F000F00700044308E022
:10186000322000EB09106421B0FBF1F000F00F0012
:1018700004432C8106B0BDE8F08700000038014029
:1018800001468888C0F30800704700BFFEE70146A4
:1018900000BF704710B56FF00400FFF787FD0A48DE
:1018A00000680A49B0FBF1F0094908700846007861
:1018B00000EB4001C1EBC0104FF6FF7101EAC00020
:1018C0000449088010BD00000000002000127A00CA
:1018D00014000020160000200146114A12884A43D5
:1018E0004FF0E0235A6100229A611A46126942F0D1
:1018F00001021A6100BF4FF0E022106900F00102FE
:101900001AB100F48032002AF5D04FF0E0221269BB
:1019100022F001024FF0E0231A6100229A61704721
:10192000160000200146114A12784A434FF0E02386
:101930005A6100229A611A46126942F001021A6144
:1019400000BF4FF0E022106900F001021AB100F46C
:101950008032002AF5D04FF0E022126922F0010215
:101960004FF0E0231A6100229A61704714000020B2
:1019700000BF054A128802F04002002AF9D0C2B224
:10198000014B1B1D1A8070470038014008B54FF00D
:101990000A0800BFFFF77EFF4FF4E13000F050F976
:1019A0004FF4A060FFF7F6FBFFF73EF8FFF7F6F8FD
:1019B000FFF742F9FEF7CEFD612148F65C70FFF7B4
:1019C000A5FD0020FFF738FD4FF6FF70FEF7FBFE88
:1019D0004FF6FF704FF478437AA2002100900A205E
:1019E000FFF700F84FF6FF704FF478437BA2142105
:1019F00000900A20FEF7F6FF4FF6FF704FF4784391
:101A00007AA2142100909620FEF7ECFF4FF6FF70AB
:101A10004FF4784376A23C2100900A20FEF7E2FFC3
:101A20004FF6FF704FF4784375A2502100900A20C2
:101A3000FEF7D8FF4FF6FF704FF4784374A264218D
:101A400000900A20FEF7CEFFBAE04FF6FF704FF489
:101A500078434246142100908220FEF7D0FE0020F9
:101A6000FFF700F8012849D108F10108B8F1000F8B
:101A700002DC4FF00A0804E0B8F1630F01DB4FF01D
:101A80000A084FF6FF704FF4784364A214210090C7
:101A90008220FEF7A7FF4FF6FF704FF478434246CF
:101AA000142100908220FEF7AAFE40F26F1108FB7D
:101AB00001F000F044FB04460D4622462B46002070
:101AC000574900F0B5F906460022564B00F0A2FB3C
:101AD00004460D462046294600F002FB06463146E4
:101AE00051A0FEF799FB2046294600F0F9FA86B28C
:101AF000314648F65C70FFF709FD4DE00020FEF727
:101B0000F1FF032848D1A8F10108B8F1000F02DC69
:101B10004FF00A0804E0B8F1630F01DB4FF00A0848
:101B20004FF6FF704FF478433CA2142100908220BE
:101B3000FEF758FF4FF6FF704FF4784342461421EA
:101B400000908220FEF75BFE40F26F1108FB01F06F
:101B500000F0F5FA04460D4622462B460020304997
:101B600000F066F9064600222E4B00F053FB0446B7
:101B70000D462046294600F0B3FA064631462AA013
:101B8000FEF74AFB2046294600F0AAFA86B2314603
:101B900048F65C70FFF7BAFC2848FFF7F6FC43F6FE
:101BA0005101084486B23046FEF7F6FC2348FFF7A1
:101BB000ECFC43F65101084486B23046FEF7F3FCD4
:101BC00043E700005472695F4672657175656E6324
:101BD000792053332B2053342D0000005472695F59
:101BE0004672657175656E63793A0000487A000047
:101BF00050432E302D2D2D2D53594E430000000003
:101C000050432E322D2D2D2D53434C4B0000000000
:101C100050432E342D2D2D2D44494E002020000000
:101C200000F915410000F03F7472695F6672655FEC
:101C30006469763D25640D0A000000000004004040
:101C400010B586B00446012144F20400FFF7BEFA45
:101C50004FF40070ADF8140003208DF81600182022
:101C60008DF8170005A91C48FEF7CDFC4FF48060E5
:101C7000ADF8140004208DF8170005A91648FEF7EA
:101C8000C2FC25208DF8000003208DF801008DF89E
:101C9000020001208DF803006846FFF743FA019423
:101CA0000020ADF80800ADF80A00ADF80C00ADF862
:101CB00010000C20ADF80E0001A90848FFF774FDD4
:101CC000012240F225510548FFF748FD0121034854
:101CD000FFF70EFD06B010BD0008014000380140BE
:101CE00010B591EA030F48BF83F0004300F19A82D8
:101CF000841A71EB030C05D2121943EB0C03001B81
:101D000061EB0C01DFF824E14FEA1154A4EB135C02
:101D10001EEA430F18BF9EEA445F73D023EA0E0306
:101D2000DCF1200E21EA045143F4801332D322FA6D
:101D30000CFE10EB0E0023FA0CFE41EB0E01CCF171
:101D4000200E03FA0EFE10EB0E0051F10001B1F56A
:101D5000801FCCF1200E32D201EB045112FA0EF2A8
:101D6000BDE8104058BF7047401C38BF5FEA4202D0
:101D700018BF7047002814BF20F0010041F1000196
:101D80004FEA410313F5001F38BF7047A1F1C0416E
:101D900000F03ABA012A43EB0302ACF1200CDCF16B
:101DA0001F0E32BF4FF0000E23FA0CF310EB0300AE
:101DB00041EB0451B4EB115FD0D0A1EB045101F51C
:101DC000801149085FEA300001EB04510ED350F155
:101DD000000038BF12FA0EFE08D1BDE81040C9E776
:101DE000401C38BF5FEA4202CAD1C3E7BDE81040D9
:101DF0004FEA410313F5001F38BF7047A1F1C041FE
:101E000000F002BA9EEA445F08D011EA5E0FBDE816
:101E1000104004BF01F0004100207047BDE81040B1
:101E200070B500F0A3F900BF64FBBE3E0000E0FF08
:101E30002DE9C04130B4DFF8A0C23CEA111418BF4C
:101E40003CEA131400F0EC8081EA03051CEA11144B
:101E500044EAD57418BF1CEA131500F0C780A4EB40
:101E600005044FF0004545EAC12145EAC32341EA94
:101E7000505143EA525304F17F74994204F50034FF
:101E80004FEAC0204FEAC22208BF904200F09C8077
:101E90004FEA13650FF24016765D4FEA134506FBD5
:101EA00005F7C7F1807706FB07F74FEAD737A7FB9F
:101EB00003687642C8F58038A7FB06CE38BFA8F184
:101EC000010807FB08E64FF0000EA6FB028CE6FBBC
:101ED00003CEDCF1000CCEF1004E38BFAEF1010EA6
:101EE000A6FB0C584FF000074FF00005E6FB0E87ED
:101EF000A1FB08C6A0FB07CE16EB0E0645F10005B8
:101F0000E1FB076515F1E04E7EBFA4F580345FEA82
:101F100046066D4116F1800745F100054FEA172787
:101F20004FEA066647EA0567A6F1DE46B6F1805F2E
:101F30004FEA15251FD9384624F0010C05EBC47172
:101F4000BCF1FE6F01EB0C1102D8F0BCBDE80081C2
:101F500024425CBF01F5801E9EEAC47F02D4F0BC1F
:101F6000BDE80081244238D4F0BCA1F1C041BDE8F5
:101F7000004100F049B94FEAD22242EA43524FEA07
:101F8000D323A7FB02864FEAD02040EA415007FB4B
:101F900003661EEA0E0F4FEAD12105FB026658BF09
:101FA000A6EB0056B6EB00564FEA520E4EEAC37E41
:101FB00018EB0E0E56EB530EBDD518EB02085E4122
:101FC0007F1C55F10005B6E74FF480154FF0000770
:101FD0004FF000064FF00008ADE7F0BC4FF00000F6
:101FE00001F1C04101F00041BDE8008111EA0C1F80
:101FF0000CEA131500D00CE013EA0C1F00F025804A
:102000004FF00000F0BC81EA030101F00041BDE89F
:102010000081F0BCBDE8004181EA030100F0F4B8A2
:10202000F0BCBDE8004170B500F0A0F8097EFC3EB0
:1020300000F007B881EA03014FF0000001F0004111
:10204000704781EA030100F0DFB8F0BCBDE8004151
:102050004FF0000021497047FFFDFBF9F7F5F4F25E
:10206000F0EEEDEBE9E8E6E4E3E1E0DEDDDBDAD833
:10207000D7D5D4D3D1D0CFCDCCCBCAC8C7C6C5C491
:10208000C2C1C0BFBEBDBCBBBAB9B8B7B6B5B4B3A8
:10209000B2B1B0AFAEADACABAAA9A8A8A7A6A5A493
:1020A000A3A3A2A1A09F9F9E9D9C9C9B9A99999857
:1020B0009797969595949393929191908F8F8E8EFA
:1020C0008D8C8C8B8B8A8989888887878685858487
:1020D00084838382828181800000FF070000F87F73
:1020E0004FEA41034FEA5353A3F58063D3F11E0334
:1020F000C8BFD3F1210C0CDD4FF0004242EAC122EF
:1021000042EA505232FA03FC8CEAE17CACEBE1701B
:102110007047102BC4BF0020704703F5787CBCF1DA
:10212000FF3F04D06FF0004282EA2100704770B593
:1021300000F01CF84992248000207047F2E710F06C
:10214000004248BF4042B0FA80F310FA03F10AD0CF
:10215000C3F11D0303F580634FEA415002EB0352C4
:1021600002EBD12170474FF0000070470EF1020ED4
:102170002EF0030E5EF8046B364205D4012A43EBC1
:10218000030515F5001F12D8012841EB010C1CF5C1
:10219000001F0CD80ED14FEAD17C15F5001F0CEBB7
:1021A0004C0C0CF1020C08BF4CEBD37C04E04FF05C
:1021B000080C01E04FEAD37C0CEB4C0526FA05F63F
:1021C00006F00706B6F1040C06D20EEB860CBDE84D
:1021D00070404CF0010C6047DFE80CF0090B020284
:1021E0004FF000414FF00000A1F5002170BD1946ED
:1021F0001046012851EB010418BFD4F5001484BF28
:10220000002001F0004170BD0808A0F500114FEA60
:102210003101704710B591EA030F48BF83F00043C6
:102220003FF566AD841A71EB030C07D212198CF0DE
:10223000004C43EB0C03001B61EB0C01DFF8A4E145
:102240004FEA1154A4EB135C1EEA430F18BF9EEA39
:10225000445F00F0B08023EA6E03524221EA045149
:10226000C3EB6E0338BF5B1EDCF1200E25D322FAD0
:102270000CFE10EB0E0043FA0CFE41EB0E01CCF10C
:10228000200E03FA0EFE10EB0E0051F10001CCF10E
:10229000200E29D412FA0EF201EB0451BDE81040D1
:1022A00058BF7047401C1CBFB2F1004F7047002858
:1022B0000CBF491C20F00100704712EB020E43EBEB
:1022C000030218BF4FF0010E4EEA4202ACF1200C9F
:1022D000DCF11E0E54D943FA0CFE10EB0E0051F146
:1022E000FF31CCF11E0ED5D50EF1010E12FA0EFE05
:1022F000404141EB010101EB445C5FEA5C5C10D9B9
:1023000010EBDE7001EB045138BFBEF1004FBDE8A9
:10231000104018BF704700280CBF491C20F0010076
:10232000704730D24FEAD42C11F5001124F4006428
:102330001BD0B1FA81F20B3AA41AA41ED2F12003E9
:10234000914030FA03F31943904001EBCC71002C1B
:1023500001EB0451BDE81040A8BF704701F1C04136
:102360004FF0000001F000417047B0FA80F310FA1E
:1023700003F100D110BDE41A173C4805C90AE4E78F
:1023800001EB045110BD491001EB0451BDE81040B0
:102390004FEA300002E04FF0000170474A0008BFEA
:1023A0000042F8D0B2F5001F28BF704701F000418D
:1023B0004FF0000070479EEA445F07D011EA5E0FBD
:1023C000BDE8104004BF002100207047BDE8104068
:1023D00070B5FFF7CBFE00BF40DFF63E83F0004153
:1023E000104670470000E0FF000000000000000001
:1023F000000000000000000000000010101010108D
:1024000010100000181800000012362448000000C8
:102410000000000000000000000000242424FE480A
:102420004848FE48484800000000103854545030D6
:10243000181414545438101000000044A4A8A8A87C
:10244000541A2A2A2A440000000000304848485004
:102450006EA494888976000000606020C0000000AF
:102460000000000000000000000204080810101026
:10247000101010080804020000402010100808087E
:102480000808081010204000000000001010D63886
:1024900038D61010000000000000000010101010CE
:1024A000FE101010100000000000000000000000EE
:1024B00000000000606020C000000000000000007C
:1024C0007F0000000000000000000000000000008D
:1024D0000000000060600000000001020204040827
:1024E0000810102020404000000000182442424202
:1024F00042424242241800000000001070101010E8
:1025000010101010107C00000000003C42424204F9
:1025100004081020427E00000000003C42420418E3
:102520000402024244380000000000040C14242479
:1025300044447E04041E00000000007E40404058D9
:1025400064020242443800000000001C244040584D
:1025500064424242241800000000007E44440808FF
:1025600010101010101000000000003C42424224E5
:1025700018244242423C000000000018244242421B
:10258000261A02022438000000000000000018187B
:1025900000000000181800000000000000000010FB
:1025A00000000000001010200000000204081020AD
:1025B0004020100804020000000000000000FE009F
:1025C0000000FE0000000000000000402010080491
:1025D00002040810204000000000003C4242620259
:1025E000040808001818000000000038445AAAAA7D
:1025F000AAAAB4424438000000000010101828288D
:10260000243C444242E70000000000F8444444787F
:102610004442424244F800000000003E42428080B2
:102620008080804244380000000000F8444242426A
:102630004242424244F80000000000FC4248487810
:102640004848404242FC0000000000FC42484878F4
:102650004848404040E000000000003C4444808086
:10266000808E844444380000000000E74242424229
:102670007E42424242E700000000007C1010101031
:1026800010101010107C00000000003E0808080820
:1026900008080808080888F0000000EE4448507058
:1026A0005048484444EE0000000000E040404040F4
:1026B0004040404042FE0000000000EE6C6C6C6C3C
:1026C0005454545454D60000000000C76262525261
:1026D0004A4A4A4646E200000000003844828282AC
:1026E0008282828244380000000000FC4242424262
:1026F0007C40404040E0000000000038448282827C
:102700008282B2CA4C380600000000FC4242427C81
:102710004848444442E300000000003E424240205A
:1027200018040242427C0000000000FE92101010CB
:102730001010101010380000000000E74242424222
:1027400042424242423C0000000000E74242442430
:102750002428281810100000000000D692929292AF
:10276000AAAA6C4444440000000000E74224241854
:102770001818242442E70000000000EE44442828F2
:1027800010101010103800000000007E84040808AB
:102790001020204242FC0000001E101010101010EB
:1027A0001010101010101E000000404020201010CB
:1027B0001008080404040202007808080808080841
:1027C0000808080808087800001C22000000000023
:1027D00000000000000000000000000000000000F9
:1027E00000000000000000FF00606020C00000004A
:1027F0000000000000000000000000000000003C9D
:10280000421E2242423F0000000000C040404058AB
:102810006442424264580000000000000000001CB6
:1028200022404040221C0000000000060202021E5E
:1028300022424242261B0000000000000000003C33
:10284000427E4040423C00000000000F1110107E0C
:1028500010101010107C0000000000000000003E6E
:10286000444438403C42423C000000C04040405C90
:102870006242424242E70000000000303000007037
:1028800010101010107C00000000000C0C00001C48
:102890000404040404044478000000C04040404E96
:1028A0004850684844EE00000000007010101010FE
:1028B00010101010107C000000000000000000FE4E
:1028C0004949494949ED000000000000000000DCD2
:1028D0006242424242E70000000000000000003C6B
:1028E00042424242423C000000000000000000D88A
:1028F00064424242447840E0000000000000001EB4
:1029000022424242221E020700000000000000EEA8
:102910003220202020F80000000000000000003ECF
:1029200042403C02427C0000000000000010107C8D
:1029300010101010100C000000000000000000C675
:1029400042424242463B000000000000000000E717
:10295000422424281010000000000000000000D7CE
:102960009292AAAA44440000000000000000006EF9
:10297000241818182476000000000000000000E76A
:1029800042242428181010E0000000000000007EFF
:1029900044081010227E000000030404040404080C
:1029A00004040404040403000808080808080808CC
:1029B000080808080808080800601010101010081F
:1029C0001010101010106000304C43000000000088
:1029D000000000000000000000000010101838384F
:1029E0003C3C7C7E7EFF0000000000FF7E7E7C3C45
:1029F0003C38381810100000182A00080000002089
:102A0000380000006C010008502A0008380000203F
:102A1000280700008801000800A24A040000000006
:102A2000000000000102030406070809000000007E
:102A30000000000000000000000001020304010289
:102A4000030406070809020406080000010100004B
:04000005080001D519
:00000001FF
